{
	"contracts/FundMe.sol": {
		"FundMe": {
			"abi": [
				{
					"inputs": [],
					"stateMutability": "nonpayable",
					"type": "constructor"
				},
				{
					"inputs": [],
					"name": "NotOwner",
					"type": "error"
				},
				{
					"stateMutability": "payable",
					"type": "fallback"
				},
				{
					"inputs": [
						{
							"internalType": "address",
							"name": "",
							"type": "address"
						}
					],
					"name": "addressToAmountFunded",
					"outputs": [
						{
							"internalType": "uint256",
							"name": "",
							"type": "uint256"
						}
					],
					"stateMutability": "view",
					"type": "function"
				},
				{
					"inputs": [],
					"name": "fund",
					"outputs": [],
					"stateMutability": "payable",
					"type": "function"
				},
				{
					"inputs": [
						{
							"internalType": "uint256",
							"name": "",
							"type": "uint256"
						}
					],
					"name": "funders",
					"outputs": [
						{
							"internalType": "address",
							"name": "",
							"type": "address"
						}
					],
					"stateMutability": "view",
					"type": "function"
				},
				{
					"inputs": [],
					"name": "i_owner",
					"outputs": [
						{
							"internalType": "address",
							"name": "",
							"type": "address"
						}
					],
					"stateMutability": "view",
					"type": "function"
				},
				{
					"inputs": [],
					"name": "minimumUSD",
					"outputs": [
						{
							"internalType": "uint256",
							"name": "",
							"type": "uint256"
						}
					],
					"stateMutability": "view",
					"type": "function"
				},
				{
					"inputs": [],
					"name": "withdraw",
					"outputs": [],
					"stateMutability": "nonpayable",
					"type": "function"
				},
				{
					"stateMutability": "payable",
					"type": "receive"
				}
			],
			"devdoc": {
				"kind": "dev",
				"methods": {},
				"version": 1
			},
			"evm": {
				"assembly": "    /* \"contracts/FundMe.sol\":201:2124  contract FundMe{... */\n  mstore(0x40, 0xa0)\n    /* \"contracts/FundMe.sol\":518:575  constructor()... */\n  callvalue\n  dup1\n  iszero\n  tag_1\n  jumpi\n  0x00\n  dup1\n  revert\ntag_1:\n  pop\n    /* \"contracts/FundMe.sol\":557:567  msg.sender */\n  caller\n    /* \"contracts/FundMe.sol\":549:567  i_owner=msg.sender */\n  0xffffffffffffffffffffffffffffffffffffffff\n  and\n  0x80\n  dup2\n  0xffffffffffffffffffffffffffffffffffffffff\n  and\n  dup2\n  mstore\n  pop\n  pop\n    /* \"contracts/FundMe.sol\":201:2124  contract FundMe{... */\n  mload(0x80)\n  codecopy(0x00, dataOffset(sub_0), dataSize(sub_0))\n  0x00\n  assignImmutable(\"0xeafa31dc210956fc0884ec5660eba9405197797219cbbda41b6aaf7118c651d8\")\n  return(0x00, dataSize(sub_0))\nstop\n\nsub_0: assembly {\n        /* \"contracts/FundMe.sol\":201:2124  contract FundMe{... */\n      mstore(0x40, 0x80)\n      jumpi(tag_1, lt(calldatasize, 0x04))\n      shr(0xe0, calldataload(0x00))\n      dup1\n      0x3430a88c\n      eq\n      tag_3\n      jumpi\n      dup1\n      0x3ccfd60b\n      eq\n      tag_4\n      jumpi\n      dup1\n      0x3e47d6f3\n      eq\n      tag_5\n      jumpi\n      dup1\n      0xb60d4288\n      eq\n      tag_6\n      jumpi\n      dup1\n      0xdba6335f\n      eq\n      tag_7\n      jumpi\n      dup1\n      0xdc0d3dff\n      eq\n      tag_8\n      jumpi\n      jump(tag_2)\n    tag_1:\n      jumpi(tag_2, calldatasize)\n        /* \"contracts/FundMe.sol\":2056:2062  fund() */\n      tag_11\n        /* \"contracts/FundMe.sol\":2056:2060  fund */\n      tag_12\n        /* \"contracts/FundMe.sol\":2056:2062  fund() */\n      jump\t// in\n    tag_11:\n        /* \"contracts/FundMe.sol\":201:2124  contract FundMe{... */\n      stop\n    tag_2:\n        /* \"contracts/FundMe.sol\":2107:2113  fund() */\n      tag_15\n        /* \"contracts/FundMe.sol\":2107:2111  fund */\n      tag_12\n        /* \"contracts/FundMe.sol\":2107:2113  fund() */\n      jump\t// in\n    tag_15:\n        /* \"contracts/FundMe.sol\":201:2124  contract FundMe{... */\n      stop\n        /* \"contracts/FundMe.sol\":264:307  uint256 public constant minimumUSD=50 *1e18 */\n    tag_3:\n      callvalue\n      dup1\n      iszero\n      tag_16\n      jumpi\n      0x00\n      dup1\n      revert\n    tag_16:\n      pop\n      tag_17\n      tag_18\n      jump\t// in\n    tag_17:\n      mload(0x40)\n      tag_19\n      swap2\n      swap1\n      tag_20\n      jump\t// in\n    tag_19:\n      mload(0x40)\n      dup1\n      swap2\n      sub\n      swap1\n      return\n        /* \"contracts/FundMe.sol\":955:1787  function withdraw() public onlyi_owner {... */\n    tag_4:\n      callvalue\n      dup1\n      iszero\n      tag_21\n      jumpi\n      0x00\n      dup1\n      revert\n    tag_21:\n      pop\n      tag_22\n      tag_23\n      jump\t// in\n    tag_22:\n      stop\n        /* \"contracts/FundMe.sol\":345:400  mapping (address=>uint256) public addressToAmountFunded */\n    tag_5:\n      callvalue\n      dup1\n      iszero\n      tag_24\n      jumpi\n      0x00\n      dup1\n      revert\n    tag_24:\n      pop\n      tag_25\n      0x04\n      dup1\n      calldatasize\n      sub\n      dup2\n      add\n      swap1\n      tag_26\n      swap2\n      swap1\n      tag_27\n      jump\t// in\n    tag_26:\n      tag_28\n      jump\t// in\n    tag_25:\n      mload(0x40)\n      tag_29\n      swap2\n      swap1\n      tag_20\n      jump\t// in\n    tag_29:\n      mload(0x40)\n      dup1\n      swap2\n      sub\n      swap1\n      return\n        /* \"contracts/FundMe.sol\":583:887  function fund() public payable ... */\n    tag_6:\n      tag_30\n      tag_12\n      jump\t// in\n    tag_30:\n      stop\n        /* \"contracts/FundMe.sol\":477:509  address public immutable i_owner */\n    tag_7:\n      callvalue\n      dup1\n      iszero\n      tag_31\n      jumpi\n      0x00\n      dup1\n      revert\n    tag_31:\n      pop\n      tag_32\n      tag_33\n      jump\t// in\n    tag_32:\n      mload(0x40)\n      tag_34\n      swap2\n      swap1\n      tag_35\n      jump\t// in\n    tag_34:\n      mload(0x40)\n      dup1\n      swap2\n      sub\n      swap1\n      return\n        /* \"contracts/FundMe.sol\":314:338  address[] public funders */\n    tag_8:\n      callvalue\n      dup1\n      iszero\n      tag_36\n      jumpi\n      0x00\n      dup1\n      revert\n    tag_36:\n      pop\n      tag_37\n      0x04\n      dup1\n      calldatasize\n      sub\n      dup2\n      add\n      swap1\n      tag_38\n      swap2\n      swap1\n      tag_39\n      jump\t// in\n    tag_38:\n      tag_40\n      jump\t// in\n    tag_37:\n      mload(0x40)\n      tag_41\n      swap2\n      swap1\n      tag_35\n      jump\t// in\n    tag_41:\n      mload(0x40)\n      dup1\n      swap2\n      sub\n      swap1\n      return\n        /* \"contracts/FundMe.sol\":583:887  function fund() public payable ... */\n    tag_12:\n        /* \"contracts/FundMe.sol\":299:307  50 *1e18 */\n      0x02b5e3af16b1880000\n        /* \"contracts/FundMe.sol\":713:742  msg.value.getConversionRate() */\n      tag_43\n        /* \"contracts/FundMe.sol\":713:722  msg.value */\n      callvalue\n        /* \"contracts/FundMe.sol\":713:740  msg.value.getConversionRate */\n      tag_44\n        /* \"contracts/FundMe.sol\":713:742  msg.value.getConversionRate() */\n      jump\t// in\n    tag_43:\n        /* \"contracts/FundMe.sol\":713:755  msg.value.getConversionRate()>= minimumUSD */\n      lt\n      iszero\n        /* \"contracts/FundMe.sol\":705:774  require(msg.value.getConversionRate()>= minimumUSD,\"Not enough fund\") */\n      tag_45\n      jumpi\n      mload(0x40)\n      0x08c379a000000000000000000000000000000000000000000000000000000000\n      dup2\n      mstore\n      0x04\n      add\n      tag_46\n      swap1\n      tag_47\n      jump\t// in\n    tag_46:\n      mload(0x40)\n      dup1\n      swap2\n      sub\n      swap1\n      revert\n    tag_45:\n        /* \"contracts/FundMe.sol\":801:808  funders */\n      0x00\n        /* \"contracts/FundMe.sol\":814:824  msg.sender */\n      caller\n        /* \"contracts/FundMe.sol\":801:825  funders.push(msg.sender) */\n      swap1\n      dup1\n      0x01\n      dup2\n      sload\n      add\n      dup1\n      dup3\n      sstore\n      dup1\n      swap2\n      pop\n      pop\n      0x01\n      swap1\n      sub\n      swap1\n      0x00\n      mstore\n      keccak256(0x00, 0x20)\n      add\n      0x00\n      swap1\n      swap2\n      swap1\n      swap2\n      swap1\n      swap2\n      0x0100\n      exp\n      dup2\n      sload\n      dup2\n      0xffffffffffffffffffffffffffffffffffffffff\n      mul\n      not\n      and\n      swap1\n      dup4\n      0xffffffffffffffffffffffffffffffffffffffff\n      and\n      mul\n      or\n      swap1\n      sstore\n      pop\n        /* \"contracts/FundMe.sol\":870:879  msg.value */\n      callvalue\n        /* \"contracts/FundMe.sol\":836:857  addressToAmountFunded */\n      0x01\n        /* \"contracts/FundMe.sol\":836:869  addressToAmountFunded[msg.sender] */\n      0x00\n        /* \"contracts/FundMe.sol\":858:868  msg.sender */\n      caller\n        /* \"contracts/FundMe.sol\":836:869  addressToAmountFunded[msg.sender] */\n      0xffffffffffffffffffffffffffffffffffffffff\n      and\n      0xffffffffffffffffffffffffffffffffffffffff\n      and\n      dup2\n      mstore\n      0x20\n      add\n      swap1\n      dup2\n      mstore\n      0x20\n      add\n      0x00\n      keccak256\n        /* \"contracts/FundMe.sol\":836:879  addressToAmountFunded[msg.sender]=msg.value */\n      dup2\n      swap1\n      sstore\n      pop\n        /* \"contracts/FundMe.sol\":583:887  function fund() public payable ... */\n      jump\t// out\n        /* \"contracts/FundMe.sol\":264:307  uint256 public constant minimumUSD=50 *1e18 */\n    tag_18:\n        /* \"contracts/FundMe.sol\":299:307  50 *1e18 */\n      0x02b5e3af16b1880000\n        /* \"contracts/FundMe.sol\":264:307  uint256 public constant minimumUSD=50 *1e18 */\n      dup2\n      jump\t// out\n        /* \"contracts/FundMe.sol\":955:1787  function withdraw() public onlyi_owner {... */\n    tag_23:\n        /* \"contracts/FundMe.sol\":1921:1928  i_owner */\n      immutable(\"0xeafa31dc210956fc0884ec5660eba9405197797219cbbda41b6aaf7118c651d8\")\n        /* \"contracts/FundMe.sol\":1909:1928  msg.sender!=i_owner */\n      0xffffffffffffffffffffffffffffffffffffffff\n      and\n        /* \"contracts/FundMe.sol\":1909:1919  msg.sender */\n      caller\n        /* \"contracts/FundMe.sol\":1909:1928  msg.sender!=i_owner */\n      0xffffffffffffffffffffffffffffffffffffffff\n      and\n      eq\n        /* \"contracts/FundMe.sol\":1906:1971  if(msg.sender!=i_owner)... */\n      tag_50\n      jumpi\n        /* \"contracts/FundMe.sol\":1953:1963  NotOwner() */\n      mload(0x40)\n      0x30cd747100000000000000000000000000000000000000000000000000000000\n      dup2\n      mstore\n      0x04\n      add\n      mload(0x40)\n      dup1\n      swap2\n      sub\n      swap1\n      revert\n        /* \"contracts/FundMe.sol\":1906:1971  if(msg.sender!=i_owner)... */\n    tag_50:\n        /* \"contracts/FundMe.sol\":1111:1130  uint256 funderIndex */\n      0x00\n        /* \"contracts/FundMe.sol\":1107:1299  for(uint256 funderIndex = 0; funderIndex < funders.length; funderIndex++)... */\n    tag_52:\n        /* \"contracts/FundMe.sol\":1150:1157  funders */\n      0x00\n        /* \"contracts/FundMe.sol\":1150:1164  funders.length */\n      dup1\n      sload\n      swap1\n      pop\n        /* \"contracts/FundMe.sol\":1136:1147  funderIndex */\n      dup2\n        /* \"contracts/FundMe.sol\":1136:1164  funderIndex < funders.length */\n      lt\n        /* \"contracts/FundMe.sol\":1107:1299  for(uint256 funderIndex = 0; funderIndex < funders.length; funderIndex++)... */\n      iszero\n      tag_53\n      jumpi\n        /* \"contracts/FundMe.sol\":1205:1219  address funder */\n      0x00\n        /* \"contracts/FundMe.sol\":1221:1228  funders */\n      dup1\n        /* \"contracts/FundMe.sol\":1229:1240  funderIndex */\n      dup3\n        /* \"contracts/FundMe.sol\":1221:1241  funders[funderIndex] */\n      dup2\n      sload\n      dup2\n      lt\n      tag_55\n      jumpi\n      tag_56\n      tag_57\n      jump\t// in\n    tag_56:\n    tag_55:\n      swap1\n      0x00\n      mstore\n      keccak256(0x00, 0x20)\n      add\n      0x00\n      swap1\n      sload\n      swap1\n      0x0100\n      exp\n      swap1\n      div\n      0xffffffffffffffffffffffffffffffffffffffff\n      and\n        /* \"contracts/FundMe.sol\":1205:1241  address funder =funders[funderIndex] */\n      swap1\n      pop\n        /* \"contracts/FundMe.sol\":1286:1287  0 */\n      0x00\n        /* \"contracts/FundMe.sol\":1256:1277  addressToAmountFunded */\n      0x01\n        /* \"contracts/FundMe.sol\":1256:1285  addressToAmountFunded[funder] */\n      0x00\n        /* \"contracts/FundMe.sol\":1278:1284  funder */\n      dup4\n        /* \"contracts/FundMe.sol\":1256:1285  addressToAmountFunded[funder] */\n      0xffffffffffffffffffffffffffffffffffffffff\n      and\n      0xffffffffffffffffffffffffffffffffffffffff\n      and\n      dup2\n      mstore\n      0x20\n      add\n      swap1\n      dup2\n      mstore\n      0x20\n      add\n      0x00\n      keccak256\n        /* \"contracts/FundMe.sol\":1256:1287  addressToAmountFunded[funder]=0 */\n      dup2\n      swap1\n      sstore\n      pop\n        /* \"contracts/FundMe.sol\":1190:1299  {... */\n      pop\n        /* \"contracts/FundMe.sol\":1166:1179  funderIndex++ */\n      dup1\n      dup1\n      tag_59\n      swap1\n      tag_60\n      jump\t// in\n    tag_59:\n      swap2\n      pop\n      pop\n        /* \"contracts/FundMe.sol\":1107:1299  for(uint256 funderIndex = 0; funderIndex < funders.length; funderIndex++)... */\n      jump(tag_52)\n    tag_53:\n      pop\n        /* \"contracts/FundMe.sol\":1357:1358  0 */\n      0x00\n        /* \"contracts/FundMe.sol\":1343:1359  new address[](0) */\n      0xffffffffffffffff\n      dup2\n      gt\n      iszero\n      tag_61\n      jumpi\n      tag_62\n      tag_63\n      jump\t// in\n    tag_62:\n    tag_61:\n      mload(0x40)\n      swap1\n      dup1\n      dup3\n      mstore\n      dup1\n      0x20\n      mul\n      0x20\n      add\n      dup3\n      add\n      0x40\n      mstore\n      dup1\n      iszero\n      tag_64\n      jumpi\n      dup2\n      0x20\n      add\n      0x20\n      dup3\n      mul\n      dup1\n      calldatasize\n      dup4\n      calldatacopy\n      dup1\n      dup3\n      add\n      swap2\n      pop\n      pop\n      swap1\n      pop\n    tag_64:\n      pop\n        /* \"contracts/FundMe.sol\":1334:1341  funders */\n      0x00\n        /* \"contracts/FundMe.sol\":1334:1359  funders =new address[](0) */\n      swap1\n      dup1\n      mload\n      swap1\n      0x20\n      add\n      swap1\n      tag_65\n      swap3\n      swap2\n      swap1\n      tag_66\n      jump\t// in\n    tag_65:\n      pop\n        /* \"contracts/FundMe.sol\":1658:1673  bool callSucess */\n      0x00\n        /* \"contracts/FundMe.sol\":1686:1696  msg.sender */\n      caller\n        /* \"contracts/FundMe.sol\":1677:1702  payable (msg.sender).call */\n      0xffffffffffffffffffffffffffffffffffffffff\n      and\n        /* \"contracts/FundMe.sol\":1709:1730  address(this).balance */\n      selfbalance\n        /* \"contracts/FundMe.sol\":1677:1735  payable (msg.sender).call{value:address(this).balance}(\"\") */\n      mload(0x40)\n      tag_67\n      swap1\n      tag_68\n      jump\t// in\n    tag_67:\n      0x00\n      mload(0x40)\n      dup1\n      dup4\n      sub\n      dup2\n      dup6\n      dup8\n      gas\n      call\n      swap3\n      pop\n      pop\n      pop\n      returndatasize\n      dup1\n      0x00\n      dup2\n      eq\n      tag_71\n      jumpi\n      mload(0x40)\n      swap2\n      pop\n      and(add(returndatasize, 0x3f), not(0x1f))\n      dup3\n      add\n      0x40\n      mstore\n      returndatasize\n      dup3\n      mstore\n      returndatasize\n      0x00\n      0x20\n      dup5\n      add\n      returndatacopy\n      jump(tag_70)\n    tag_71:\n      0x60\n      swap2\n      pop\n    tag_70:\n      pop\n        /* \"contracts/FundMe.sol\":1657:1735  (bool callSucess, )=payable (msg.sender).call{value:address(this).balance}(\"\") */\n      pop\n      swap1\n      pop\n        /* \"contracts/FundMe.sol\":1754:1764  callSucess */\n      dup1\n        /* \"contracts/FundMe.sol\":1746:1779  require(callSucess,\"Call failed\") */\n      tag_72\n      jumpi\n      mload(0x40)\n      0x08c379a000000000000000000000000000000000000000000000000000000000\n      dup2\n      mstore\n      0x04\n      add\n      tag_73\n      swap1\n      tag_74\n      jump\t// in\n    tag_73:\n      mload(0x40)\n      dup1\n      swap2\n      sub\n      swap1\n      revert\n    tag_72:\n        /* \"contracts/FundMe.sol\":994:1787  {... */\n      pop\n        /* \"contracts/FundMe.sol\":955:1787  function withdraw() public onlyi_owner {... */\n      jump\t// out\n        /* \"contracts/FundMe.sol\":345:400  mapping (address=>uint256) public addressToAmountFunded */\n    tag_28:\n      mstore(0x20, 0x01)\n      dup1\n      0x00\n      mstore\n      keccak256(0x00, 0x40)\n      0x00\n      swap2\n      pop\n      swap1\n      pop\n      sload\n      dup2\n      jump\t// out\n        /* \"contracts/FundMe.sol\":477:509  address public immutable i_owner */\n    tag_33:\n      immutable(\"0xeafa31dc210956fc0884ec5660eba9405197797219cbbda41b6aaf7118c651d8\")\n      dup2\n      jump\t// out\n        /* \"contracts/FundMe.sol\":314:338  address[] public funders */\n    tag_40:\n      0x00\n      dup2\n      dup2\n      sload\n      dup2\n      lt\n      tag_75\n      jumpi\n      0x00\n      dup1\n      revert\n    tag_75:\n      swap1\n      0x00\n      mstore\n      keccak256(0x00, 0x20)\n      add\n      0x00\n      swap2\n      pop\n      sload\n      swap1\n      0x0100\n      exp\n      swap1\n      div\n      0xffffffffffffffffffffffffffffffffffffffff\n      and\n      dup2\n      jump\t// out\n        /* \"contracts/PriceConverter.sol\":612:836  function getConversionRate(uint ethAmount) internal  view returns ( uint256)... */\n    tag_44:\n        /* \"contracts/PriceConverter.sol\":680:687  uint256 */\n      0x00\n        /* \"contracts/PriceConverter.sol\":705:721  uint256 ethPrice */\n      dup1\n        /* \"contracts/PriceConverter.sol\":724:734  getPrice() */\n      tag_78\n        /* \"contracts/PriceConverter.sol\":724:732  getPrice */\n      tag_79\n        /* \"contracts/PriceConverter.sol\":724:734  getPrice() */\n      jump\t// in\n    tag_78:\n        /* \"contracts/PriceConverter.sol\":705:734  uint256 ethPrice = getPrice() */\n      swap1\n      pop\n        /* \"contracts/PriceConverter.sol\":745:767  uint256 ethAmountInUsd */\n      0x00\n        /* \"contracts/PriceConverter.sol\":792:796  1e18 */\n      0x0de0b6b3a7640000\n        /* \"contracts/PriceConverter.sol\":781:790  ethAmount */\n      dup5\n        /* \"contracts/PriceConverter.sol\":770:778  ethPrice */\n      dup4\n        /* \"contracts/PriceConverter.sol\":770:790  ethPrice * ethAmount */\n      tag_80\n      swap2\n      swap1\n      tag_81\n      jump\t// in\n    tag_80:\n        /* \"contracts/PriceConverter.sol\":769:796  (ethPrice * ethAmount)/1e18 */\n      tag_82\n      swap2\n      swap1\n      tag_83\n      jump\t// in\n    tag_82:\n        /* \"contracts/PriceConverter.sol\":745:796  uint256 ethAmountInUsd= (ethPrice * ethAmount)/1e18 */\n      swap1\n      pop\n        /* \"contracts/PriceConverter.sol\":814:828  ethAmountInUsd */\n      dup1\n        /* \"contracts/PriceConverter.sol\":807:828  return ethAmountInUsd */\n      swap3\n      pop\n      pop\n      pop\n        /* \"contracts/PriceConverter.sol\":612:836  function getConversionRate(uint ethAmount) internal  view returns ( uint256)... */\n      swap2\n      swap1\n      pop\n      jump\t// out\n        /* \"contracts/PriceConverter.sol\":239:606  function getPrice() internal view returns(uint256){... */\n    tag_79:\n        /* \"contracts/PriceConverter.sol\":281:288  uint256 */\n      0x00\n        /* \"contracts/PriceConverter.sol\":377:408  AggregatorV3Interface priceFeed */\n      dup1\n        /* \"contracts/PriceConverter.sol\":431:473  0x694AA1769357215DE4FAC081bf1f309aDC325306 */\n      0x694aa1769357215de4fac081bf1f309adc325306\n        /* \"contracts/PriceConverter.sol\":377:474  AggregatorV3Interface priceFeed=AggregatorV3Interface(0x694AA1769357215DE4FAC081bf1f309aDC325306) */\n      swap1\n      pop\n        /* \"contracts/PriceConverter.sol\":487:496  int price */\n      0x00\n        /* \"contracts/PriceConverter.sol\":501:510  priceFeed */\n      dup2\n        /* \"contracts/PriceConverter.sol\":501:526  priceFeed.latestRoundData */\n      0xffffffffffffffffffffffffffffffffffffffff\n      and\n      0xfeaf968c\n        /* \"contracts/PriceConverter.sol\":501:528  priceFeed.latestRoundData() */\n      mload(0x40)\n      dup2\n      0xffffffff\n      and\n      0xe0\n      shl\n      dup2\n      mstore\n      0x04\n      add\n      0xa0\n      mload(0x40)\n      dup1\n      dup4\n      sub\n      dup2\n      dup7\n      gas\n      staticcall\n      iszero\n      dup1\n      iszero\n      tag_86\n      jumpi\n      returndatasize\n      0x00\n      dup1\n      returndatacopy\n      revert(0x00, returndatasize)\n    tag_86:\n      pop\n      pop\n      pop\n      pop\n      mload(0x40)\n      returndatasize\n      not(0x1f)\n      0x1f\n      dup3\n      add\n      and\n      dup3\n      add\n      dup1\n      0x40\n      mstore\n      pop\n      dup2\n      add\n      swap1\n      tag_87\n      swap2\n      swap1\n      tag_88\n      jump\t// in\n    tag_87:\n        /* \"contracts/PriceConverter.sol\":485:528  (,int price,,,)=priceFeed.latestRoundData() */\n      pop\n      pop\n      pop\n      swap2\n      pop\n      pop\n        /* \"contracts/PriceConverter.sol\":593:597  1e10 */\n      0x02540be400\n        /* \"contracts/PriceConverter.sol\":585:590  price */\n      dup2\n        /* \"contracts/PriceConverter.sol\":585:597  price * 1e10 */\n      tag_89\n      swap2\n      swap1\n      tag_90\n      jump\t// in\n    tag_89:\n        /* \"contracts/PriceConverter.sol\":570:598  return uint256(price * 1e10) */\n      swap3\n      pop\n      pop\n      pop\n        /* \"contracts/PriceConverter.sol\":239:606  function getPrice() internal view returns(uint256){... */\n      swap1\n      jump\t// out\n    tag_66:\n      dup3\n      dup1\n      sload\n      dup3\n      dup3\n      sstore\n      swap1\n      0x00\n      mstore\n      keccak256(0x00, 0x20)\n      swap1\n      dup2\n      add\n      swap3\n      dup3\n      iszero\n      tag_91\n      jumpi\n      swap2\n      0x20\n      mul\n      dup3\n      add\n    tag_92:\n      dup3\n      dup2\n      gt\n      iszero\n      tag_93\n      jumpi\n      dup3\n      mload\n      dup3\n      exp(0x0100, 0x00)\n      dup2\n      sload\n      dup2\n      0xffffffffffffffffffffffffffffffffffffffff\n      mul\n      not\n      and\n      swap1\n      dup4\n      0xffffffffffffffffffffffffffffffffffffffff\n      and\n      mul\n      or\n      swap1\n      sstore\n      pop\n      swap2\n      0x20\n      add\n      swap2\n      swap1\n      0x01\n      add\n      swap1\n      jump(tag_92)\n    tag_93:\n    tag_91:\n      pop\n      swap1\n      pop\n      tag_94\n      swap2\n      swap1\n      tag_95\n      jump\t// in\n    tag_94:\n      pop\n      swap1\n      jump\t// out\n    tag_95:\n    tag_96:\n      dup1\n      dup3\n      gt\n      iszero\n      tag_97\n      jumpi\n      0x00\n      dup2\n      0x00\n      swap1\n      sstore\n      pop\n      0x01\n      add\n      jump(tag_96)\n    tag_97:\n      pop\n      swap1\n      jump\t// out\n        /* \"#utility.yul\":7:84   */\n    tag_98:\n        /* \"#utility.yul\":44:51   */\n      0x00\n        /* \"#utility.yul\":73:78   */\n      dup2\n        /* \"#utility.yul\":62:78   */\n      swap1\n      pop\n        /* \"#utility.yul\":7:84   */\n      swap2\n      swap1\n      pop\n      jump\t// out\n        /* \"#utility.yul\":90:208   */\n    tag_99:\n        /* \"#utility.yul\":177:201   */\n      tag_130\n        /* \"#utility.yul\":195:200   */\n      dup2\n        /* \"#utility.yul\":177:201   */\n      tag_98\n      jump\t// in\n    tag_130:\n        /* \"#utility.yul\":172:175   */\n      dup3\n        /* \"#utility.yul\":165:202   */\n      mstore\n        /* \"#utility.yul\":90:208   */\n      pop\n      pop\n      jump\t// out\n        /* \"#utility.yul\":214:436   */\n    tag_20:\n        /* \"#utility.yul\":307:311   */\n      0x00\n        /* \"#utility.yul\":345:347   */\n      0x20\n        /* \"#utility.yul\":334:343   */\n      dup3\n        /* \"#utility.yul\":330:348   */\n      add\n        /* \"#utility.yul\":322:348   */\n      swap1\n      pop\n        /* \"#utility.yul\":358:429   */\n      tag_132\n        /* \"#utility.yul\":426:427   */\n      0x00\n        /* \"#utility.yul\":415:424   */\n      dup4\n        /* \"#utility.yul\":411:428   */\n      add\n        /* \"#utility.yul\":402:408   */\n      dup5\n        /* \"#utility.yul\":358:429   */\n      tag_99\n      jump\t// in\n    tag_132:\n        /* \"#utility.yul\":214:436   */\n      swap3\n      swap2\n      pop\n      pop\n      jump\t// out\n        /* \"#utility.yul\":523:640   */\n    tag_101:\n        /* \"#utility.yul\":632:633   */\n      0x00\n        /* \"#utility.yul\":629:630   */\n      dup1\n        /* \"#utility.yul\":622:634   */\n      revert\n        /* \"#utility.yul\":769:895   */\n    tag_103:\n        /* \"#utility.yul\":806:813   */\n      0x00\n        /* \"#utility.yul\":846:888   */\n      0xffffffffffffffffffffffffffffffffffffffff\n        /* \"#utility.yul\":839:844   */\n      dup3\n        /* \"#utility.yul\":835:889   */\n      and\n        /* \"#utility.yul\":824:889   */\n      swap1\n      pop\n        /* \"#utility.yul\":769:895   */\n      swap2\n      swap1\n      pop\n      jump\t// out\n        /* \"#utility.yul\":901:997   */\n    tag_104:\n        /* \"#utility.yul\":938:945   */\n      0x00\n        /* \"#utility.yul\":967:991   */\n      tag_138\n        /* \"#utility.yul\":985:990   */\n      dup3\n        /* \"#utility.yul\":967:991   */\n      tag_103\n      jump\t// in\n    tag_138:\n        /* \"#utility.yul\":956:991   */\n      swap1\n      pop\n        /* \"#utility.yul\":901:997   */\n      swap2\n      swap1\n      pop\n      jump\t// out\n        /* \"#utility.yul\":1003:1125   */\n    tag_105:\n        /* \"#utility.yul\":1076:1100   */\n      tag_140\n        /* \"#utility.yul\":1094:1099   */\n      dup2\n        /* \"#utility.yul\":1076:1100   */\n      tag_104\n      jump\t// in\n    tag_140:\n        /* \"#utility.yul\":1069:1074   */\n      dup2\n        /* \"#utility.yul\":1066:1101   */\n      eq\n        /* \"#utility.yul\":1056:1119   */\n      tag_141\n      jumpi\n        /* \"#utility.yul\":1115:1116   */\n      0x00\n        /* \"#utility.yul\":1112:1113   */\n      dup1\n        /* \"#utility.yul\":1105:1117   */\n      revert\n        /* \"#utility.yul\":1056:1119   */\n    tag_141:\n        /* \"#utility.yul\":1003:1125   */\n      pop\n      jump\t// out\n        /* \"#utility.yul\":1131:1270   */\n    tag_106:\n        /* \"#utility.yul\":1177:1182   */\n      0x00\n        /* \"#utility.yul\":1215:1221   */\n      dup2\n        /* \"#utility.yul\":1202:1222   */\n      calldataload\n        /* \"#utility.yul\":1193:1222   */\n      swap1\n      pop\n        /* \"#utility.yul\":1231:1264   */\n      tag_143\n        /* \"#utility.yul\":1258:1263   */\n      dup2\n        /* \"#utility.yul\":1231:1264   */\n      tag_105\n      jump\t// in\n    tag_143:\n        /* \"#utility.yul\":1131:1270   */\n      swap3\n      swap2\n      pop\n      pop\n      jump\t// out\n        /* \"#utility.yul\":1276:1605   */\n    tag_27:\n        /* \"#utility.yul\":1335:1341   */\n      0x00\n        /* \"#utility.yul\":1384:1386   */\n      0x20\n        /* \"#utility.yul\":1372:1381   */\n      dup3\n        /* \"#utility.yul\":1363:1370   */\n      dup5\n        /* \"#utility.yul\":1359:1382   */\n      sub\n        /* \"#utility.yul\":1355:1387   */\n      slt\n        /* \"#utility.yul\":1352:1471   */\n      iszero\n      tag_145\n      jumpi\n        /* \"#utility.yul\":1390:1469   */\n      tag_146\n      tag_101\n      jump\t// in\n    tag_146:\n        /* \"#utility.yul\":1352:1471   */\n    tag_145:\n        /* \"#utility.yul\":1510:1511   */\n      0x00\n        /* \"#utility.yul\":1535:1588   */\n      tag_147\n        /* \"#utility.yul\":1580:1587   */\n      dup5\n        /* \"#utility.yul\":1571:1577   */\n      dup3\n        /* \"#utility.yul\":1560:1569   */\n      dup6\n        /* \"#utility.yul\":1556:1578   */\n      add\n        /* \"#utility.yul\":1535:1588   */\n      tag_106\n      jump\t// in\n    tag_147:\n        /* \"#utility.yul\":1525:1588   */\n      swap2\n      pop\n        /* \"#utility.yul\":1481:1598   */\n      pop\n        /* \"#utility.yul\":1276:1605   */\n      swap3\n      swap2\n      pop\n      pop\n      jump\t// out\n        /* \"#utility.yul\":1611:1729   */\n    tag_107:\n        /* \"#utility.yul\":1698:1722   */\n      tag_149\n        /* \"#utility.yul\":1716:1721   */\n      dup2\n        /* \"#utility.yul\":1698:1722   */\n      tag_104\n      jump\t// in\n    tag_149:\n        /* \"#utility.yul\":1693:1696   */\n      dup3\n        /* \"#utility.yul\":1686:1723   */\n      mstore\n        /* \"#utility.yul\":1611:1729   */\n      pop\n      pop\n      jump\t// out\n        /* \"#utility.yul\":1735:1957   */\n    tag_35:\n        /* \"#utility.yul\":1828:1832   */\n      0x00\n        /* \"#utility.yul\":1866:1868   */\n      0x20\n        /* \"#utility.yul\":1855:1864   */\n      dup3\n        /* \"#utility.yul\":1851:1869   */\n      add\n        /* \"#utility.yul\":1843:1869   */\n      swap1\n      pop\n        /* \"#utility.yul\":1879:1950   */\n      tag_151\n        /* \"#utility.yul\":1947:1948   */\n      0x00\n        /* \"#utility.yul\":1936:1945   */\n      dup4\n        /* \"#utility.yul\":1932:1949   */\n      add\n        /* \"#utility.yul\":1923:1929   */\n      dup5\n        /* \"#utility.yul\":1879:1950   */\n      tag_107\n      jump\t// in\n    tag_151:\n        /* \"#utility.yul\":1735:1957   */\n      swap3\n      swap2\n      pop\n      pop\n      jump\t// out\n        /* \"#utility.yul\":1963:2085   */\n    tag_108:\n        /* \"#utility.yul\":2036:2060   */\n      tag_153\n        /* \"#utility.yul\":2054:2059   */\n      dup2\n        /* \"#utility.yul\":2036:2060   */\n      tag_98\n      jump\t// in\n    tag_153:\n        /* \"#utility.yul\":2029:2034   */\n      dup2\n        /* \"#utility.yul\":2026:2061   */\n      eq\n        /* \"#utility.yul\":2016:2079   */\n      tag_154\n      jumpi\n        /* \"#utility.yul\":2075:2076   */\n      0x00\n        /* \"#utility.yul\":2072:2073   */\n      dup1\n        /* \"#utility.yul\":2065:2077   */\n      revert\n        /* \"#utility.yul\":2016:2079   */\n    tag_154:\n        /* \"#utility.yul\":1963:2085   */\n      pop\n      jump\t// out\n        /* \"#utility.yul\":2091:2230   */\n    tag_109:\n        /* \"#utility.yul\":2137:2142   */\n      0x00\n        /* \"#utility.yul\":2175:2181   */\n      dup2\n        /* \"#utility.yul\":2162:2182   */\n      calldataload\n        /* \"#utility.yul\":2153:2182   */\n      swap1\n      pop\n        /* \"#utility.yul\":2191:2224   */\n      tag_156\n        /* \"#utility.yul\":2218:2223   */\n      dup2\n        /* \"#utility.yul\":2191:2224   */\n      tag_108\n      jump\t// in\n    tag_156:\n        /* \"#utility.yul\":2091:2230   */\n      swap3\n      swap2\n      pop\n      pop\n      jump\t// out\n        /* \"#utility.yul\":2236:2565   */\n    tag_39:\n        /* \"#utility.yul\":2295:2301   */\n      0x00\n        /* \"#utility.yul\":2344:2346   */\n      0x20\n        /* \"#utility.yul\":2332:2341   */\n      dup3\n        /* \"#utility.yul\":2323:2330   */\n      dup5\n        /* \"#utility.yul\":2319:2342   */\n      sub\n        /* \"#utility.yul\":2315:2347   */\n      slt\n        /* \"#utility.yul\":2312:2431   */\n      iszero\n      tag_158\n      jumpi\n        /* \"#utility.yul\":2350:2429   */\n      tag_159\n      tag_101\n      jump\t// in\n    tag_159:\n        /* \"#utility.yul\":2312:2431   */\n    tag_158:\n        /* \"#utility.yul\":2470:2471   */\n      0x00\n        /* \"#utility.yul\":2495:2548   */\n      tag_160\n        /* \"#utility.yul\":2540:2547   */\n      dup5\n        /* \"#utility.yul\":2531:2537   */\n      dup3\n        /* \"#utility.yul\":2520:2529   */\n      dup6\n        /* \"#utility.yul\":2516:2538   */\n      add\n        /* \"#utility.yul\":2495:2548   */\n      tag_109\n      jump\t// in\n    tag_160:\n        /* \"#utility.yul\":2485:2548   */\n      swap2\n      pop\n        /* \"#utility.yul\":2441:2558   */\n      pop\n        /* \"#utility.yul\":2236:2565   */\n      swap3\n      swap2\n      pop\n      pop\n      jump\t// out\n        /* \"#utility.yul\":2571:2740   */\n    tag_110:\n        /* \"#utility.yul\":2655:2666   */\n      0x00\n        /* \"#utility.yul\":2689:2695   */\n      dup3\n        /* \"#utility.yul\":2684:2687   */\n      dup3\n        /* \"#utility.yul\":2677:2696   */\n      mstore\n        /* \"#utility.yul\":2729:2733   */\n      0x20\n        /* \"#utility.yul\":2724:2727   */\n      dup3\n        /* \"#utility.yul\":2720:2734   */\n      add\n        /* \"#utility.yul\":2705:2734   */\n      swap1\n      pop\n        /* \"#utility.yul\":2571:2740   */\n      swap3\n      swap2\n      pop\n      pop\n      jump\t// out\n        /* \"#utility.yul\":2746:2911   */\n    tag_111:\n        /* \"#utility.yul\":2886:2903   */\n      0x4e6f7420656e6f7567682066756e640000000000000000000000000000000000\n        /* \"#utility.yul\":2882:2883   */\n      0x00\n        /* \"#utility.yul\":2874:2880   */\n      dup3\n        /* \"#utility.yul\":2870:2884   */\n      add\n        /* \"#utility.yul\":2863:2904   */\n      mstore\n        /* \"#utility.yul\":2746:2911   */\n      pop\n      jump\t// out\n        /* \"#utility.yul\":2917:3283   */\n    tag_112:\n        /* \"#utility.yul\":3059:3062   */\n      0x00\n        /* \"#utility.yul\":3080:3147   */\n      tag_164\n        /* \"#utility.yul\":3144:3146   */\n      0x0f\n        /* \"#utility.yul\":3139:3142   */\n      dup4\n        /* \"#utility.yul\":3080:3147   */\n      tag_110\n      jump\t// in\n    tag_164:\n        /* \"#utility.yul\":3073:3147   */\n      swap2\n      pop\n        /* \"#utility.yul\":3156:3249   */\n      tag_165\n        /* \"#utility.yul\":3245:3248   */\n      dup3\n        /* \"#utility.yul\":3156:3249   */\n      tag_111\n      jump\t// in\n    tag_165:\n        /* \"#utility.yul\":3274:3276   */\n      0x20\n        /* \"#utility.yul\":3269:3272   */\n      dup3\n        /* \"#utility.yul\":3265:3277   */\n      add\n        /* \"#utility.yul\":3258:3277   */\n      swap1\n      pop\n        /* \"#utility.yul\":2917:3283   */\n      swap2\n      swap1\n      pop\n      jump\t// out\n        /* \"#utility.yul\":3289:3708   */\n    tag_47:\n        /* \"#utility.yul\":3455:3459   */\n      0x00\n        /* \"#utility.yul\":3493:3495   */\n      0x20\n        /* \"#utility.yul\":3482:3491   */\n      dup3\n        /* \"#utility.yul\":3478:3496   */\n      add\n        /* \"#utility.yul\":3470:3496   */\n      swap1\n      pop\n        /* \"#utility.yul\":3542:3551   */\n      dup2\n        /* \"#utility.yul\":3536:3540   */\n      dup2\n        /* \"#utility.yul\":3532:3552   */\n      sub\n        /* \"#utility.yul\":3528:3529   */\n      0x00\n        /* \"#utility.yul\":3517:3526   */\n      dup4\n        /* \"#utility.yul\":3513:3530   */\n      add\n        /* \"#utility.yul\":3506:3553   */\n      mstore\n        /* \"#utility.yul\":3570:3701   */\n      tag_167\n        /* \"#utility.yul\":3696:3700   */\n      dup2\n        /* \"#utility.yul\":3570:3701   */\n      tag_112\n      jump\t// in\n    tag_167:\n        /* \"#utility.yul\":3562:3701   */\n      swap1\n      pop\n        /* \"#utility.yul\":3289:3708   */\n      swap2\n      swap1\n      pop\n      jump\t// out\n        /* \"#utility.yul\":3714:3894   */\n    tag_57:\n        /* \"#utility.yul\":3762:3839   */\n      0x4e487b7100000000000000000000000000000000000000000000000000000000\n        /* \"#utility.yul\":3759:3760   */\n      0x00\n        /* \"#utility.yul\":3752:3840   */\n      mstore\n        /* \"#utility.yul\":3859:3863   */\n      0x32\n        /* \"#utility.yul\":3856:3857   */\n      0x04\n        /* \"#utility.yul\":3849:3864   */\n      mstore\n        /* \"#utility.yul\":3883:3887   */\n      0x24\n        /* \"#utility.yul\":3880:3881   */\n      0x00\n        /* \"#utility.yul\":3873:3888   */\n      revert\n        /* \"#utility.yul\":3900:4080   */\n    tag_113:\n        /* \"#utility.yul\":3948:4025   */\n      0x4e487b7100000000000000000000000000000000000000000000000000000000\n        /* \"#utility.yul\":3945:3946   */\n      0x00\n        /* \"#utility.yul\":3938:4026   */\n      mstore\n        /* \"#utility.yul\":4045:4049   */\n      0x11\n        /* \"#utility.yul\":4042:4043   */\n      0x04\n        /* \"#utility.yul\":4035:4050   */\n      mstore\n        /* \"#utility.yul\":4069:4073   */\n      0x24\n        /* \"#utility.yul\":4066:4067   */\n      0x00\n        /* \"#utility.yul\":4059:4074   */\n      revert\n        /* \"#utility.yul\":4086:4319   */\n    tag_60:\n        /* \"#utility.yul\":4125:4128   */\n      0x00\n        /* \"#utility.yul\":4148:4172   */\n      tag_171\n        /* \"#utility.yul\":4166:4171   */\n      dup3\n        /* \"#utility.yul\":4148:4172   */\n      tag_98\n      jump\t// in\n    tag_171:\n        /* \"#utility.yul\":4139:4172   */\n      swap2\n      pop\n        /* \"#utility.yul\":4194:4260   */\n      0xffffffffffffffffffffffffffffffffffffffffffffffffffffffffffffffff\n        /* \"#utility.yul\":4187:4192   */\n      dup3\n        /* \"#utility.yul\":4184:4261   */\n      sub\n        /* \"#utility.yul\":4181:4284   */\n      tag_172\n      jumpi\n        /* \"#utility.yul\":4264:4282   */\n      tag_173\n      tag_113\n      jump\t// in\n    tag_173:\n        /* \"#utility.yul\":4181:4284   */\n    tag_172:\n        /* \"#utility.yul\":4311:4312   */\n      0x01\n        /* \"#utility.yul\":4304:4309   */\n      dup3\n        /* \"#utility.yul\":4300:4313   */\n      add\n        /* \"#utility.yul\":4293:4313   */\n      swap1\n      pop\n        /* \"#utility.yul\":4086:4319   */\n      swap2\n      swap1\n      pop\n      jump\t// out\n        /* \"#utility.yul\":4325:4505   */\n    tag_63:\n        /* \"#utility.yul\":4373:4450   */\n      0x4e487b7100000000000000000000000000000000000000000000000000000000\n        /* \"#utility.yul\":4370:4371   */\n      0x00\n        /* \"#utility.yul\":4363:4451   */\n      mstore\n        /* \"#utility.yul\":4470:4474   */\n      0x41\n        /* \"#utility.yul\":4467:4468   */\n      0x04\n        /* \"#utility.yul\":4460:4475   */\n      mstore\n        /* \"#utility.yul\":4494:4498   */\n      0x24\n        /* \"#utility.yul\":4491:4492   */\n      0x00\n        /* \"#utility.yul\":4484:4499   */\n      revert\n        /* \"#utility.yul\":4511:4658   */\n    tag_114:\n        /* \"#utility.yul\":4612:4623   */\n      0x00\n        /* \"#utility.yul\":4649:4652   */\n      dup2\n        /* \"#utility.yul\":4634:4652   */\n      swap1\n      pop\n        /* \"#utility.yul\":4511:4658   */\n      swap3\n      swap2\n      pop\n      pop\n      jump\t// out\n        /* \"#utility.yul\":4664:4778   */\n    tag_115:\n      pop\n      jump\t// out\n        /* \"#utility.yul\":4784:5182   */\n    tag_116:\n        /* \"#utility.yul\":4943:4946   */\n      0x00\n        /* \"#utility.yul\":4964:5047   */\n      tag_178\n        /* \"#utility.yul\":5045:5046   */\n      0x00\n        /* \"#utility.yul\":5040:5043   */\n      dup4\n        /* \"#utility.yul\":4964:5047   */\n      tag_114\n      jump\t// in\n    tag_178:\n        /* \"#utility.yul\":4957:5047   */\n      swap2\n      pop\n        /* \"#utility.yul\":5056:5149   */\n      tag_179\n        /* \"#utility.yul\":5145:5148   */\n      dup3\n        /* \"#utility.yul\":5056:5149   */\n      tag_115\n      jump\t// in\n    tag_179:\n        /* \"#utility.yul\":5174:5175   */\n      0x00\n        /* \"#utility.yul\":5169:5172   */\n      dup3\n        /* \"#utility.yul\":5165:5176   */\n      add\n        /* \"#utility.yul\":5158:5176   */\n      swap1\n      pop\n        /* \"#utility.yul\":4784:5182   */\n      swap2\n      swap1\n      pop\n      jump\t// out\n        /* \"#utility.yul\":5188:5567   */\n    tag_68:\n        /* \"#utility.yul\":5372:5375   */\n      0x00\n        /* \"#utility.yul\":5394:5541   */\n      tag_181\n        /* \"#utility.yul\":5537:5540   */\n      dup3\n        /* \"#utility.yul\":5394:5541   */\n      tag_116\n      jump\t// in\n    tag_181:\n        /* \"#utility.yul\":5387:5541   */\n      swap2\n      pop\n        /* \"#utility.yul\":5558:5561   */\n      dup2\n        /* \"#utility.yul\":5551:5561   */\n      swap1\n      pop\n        /* \"#utility.yul\":5188:5567   */\n      swap2\n      swap1\n      pop\n      jump\t// out\n        /* \"#utility.yul\":5573:5734   */\n    tag_117:\n        /* \"#utility.yul\":5713:5726   */\n      0x43616c6c206661696c6564000000000000000000000000000000000000000000\n        /* \"#utility.yul\":5709:5710   */\n      0x00\n        /* \"#utility.yul\":5701:5707   */\n      dup3\n        /* \"#utility.yul\":5697:5711   */\n      add\n        /* \"#utility.yul\":5690:5727   */\n      mstore\n        /* \"#utility.yul\":5573:5734   */\n      pop\n      jump\t// out\n        /* \"#utility.yul\":5740:6106   */\n    tag_118:\n        /* \"#utility.yul\":5882:5885   */\n      0x00\n        /* \"#utility.yul\":5903:5970   */\n      tag_184\n        /* \"#utility.yul\":5967:5969   */\n      0x0b\n        /* \"#utility.yul\":5962:5965   */\n      dup4\n        /* \"#utility.yul\":5903:5970   */\n      tag_110\n      jump\t// in\n    tag_184:\n        /* \"#utility.yul\":5896:5970   */\n      swap2\n      pop\n        /* \"#utility.yul\":5979:6072   */\n      tag_185\n        /* \"#utility.yul\":6068:6071   */\n      dup3\n        /* \"#utility.yul\":5979:6072   */\n      tag_117\n      jump\t// in\n    tag_185:\n        /* \"#utility.yul\":6097:6099   */\n      0x20\n        /* \"#utility.yul\":6092:6095   */\n      dup3\n        /* \"#utility.yul\":6088:6100   */\n      add\n        /* \"#utility.yul\":6081:6100   */\n      swap1\n      pop\n        /* \"#utility.yul\":5740:6106   */\n      swap2\n      swap1\n      pop\n      jump\t// out\n        /* \"#utility.yul\":6112:6531   */\n    tag_74:\n        /* \"#utility.yul\":6278:6282   */\n      0x00\n        /* \"#utility.yul\":6316:6318   */\n      0x20\n        /* \"#utility.yul\":6305:6314   */\n      dup3\n        /* \"#utility.yul\":6301:6319   */\n      add\n        /* \"#utility.yul\":6293:6319   */\n      swap1\n      pop\n        /* \"#utility.yul\":6365:6374   */\n      dup2\n        /* \"#utility.yul\":6359:6363   */\n      dup2\n        /* \"#utility.yul\":6355:6375   */\n      sub\n        /* \"#utility.yul\":6351:6352   */\n      0x00\n        /* \"#utility.yul\":6340:6349   */\n      dup4\n        /* \"#utility.yul\":6336:6353   */\n      add\n        /* \"#utility.yul\":6329:6376   */\n      mstore\n        /* \"#utility.yul\":6393:6524   */\n      tag_187\n        /* \"#utility.yul\":6519:6523   */\n      dup2\n        /* \"#utility.yul\":6393:6524   */\n      tag_118\n      jump\t// in\n    tag_187:\n        /* \"#utility.yul\":6385:6524   */\n      swap1\n      pop\n        /* \"#utility.yul\":6112:6531   */\n      swap2\n      swap1\n      pop\n      jump\t// out\n        /* \"#utility.yul\":6537:6947   */\n    tag_81:\n        /* \"#utility.yul\":6577:6584   */\n      0x00\n        /* \"#utility.yul\":6600:6620   */\n      tag_189\n        /* \"#utility.yul\":6618:6619   */\n      dup3\n        /* \"#utility.yul\":6600:6620   */\n      tag_98\n      jump\t// in\n    tag_189:\n        /* \"#utility.yul\":6595:6620   */\n      swap2\n      pop\n        /* \"#utility.yul\":6634:6654   */\n      tag_190\n        /* \"#utility.yul\":6652:6653   */\n      dup4\n        /* \"#utility.yul\":6634:6654   */\n      tag_98\n      jump\t// in\n    tag_190:\n        /* \"#utility.yul\":6629:6654   */\n      swap3\n      pop\n        /* \"#utility.yul\":6689:6690   */\n      dup3\n        /* \"#utility.yul\":6686:6687   */\n      dup3\n        /* \"#utility.yul\":6682:6691   */\n      mul\n        /* \"#utility.yul\":6711:6741   */\n      tag_191\n        /* \"#utility.yul\":6729:6740   */\n      dup2\n        /* \"#utility.yul\":6711:6741   */\n      tag_98\n      jump\t// in\n    tag_191:\n        /* \"#utility.yul\":6700:6741   */\n      swap2\n      pop\n        /* \"#utility.yul\":6890:6891   */\n      dup3\n        /* \"#utility.yul\":6881:6888   */\n      dup3\n        /* \"#utility.yul\":6877:6892   */\n      div\n        /* \"#utility.yul\":6874:6875   */\n      dup5\n        /* \"#utility.yul\":6871:6893   */\n      eq\n        /* \"#utility.yul\":6851:6852   */\n      dup4\n        /* \"#utility.yul\":6844:6853   */\n      iszero\n        /* \"#utility.yul\":6824:6907   */\n      or\n        /* \"#utility.yul\":6801:6940   */\n      tag_192\n      jumpi\n        /* \"#utility.yul\":6920:6938   */\n      tag_193\n      tag_113\n      jump\t// in\n    tag_193:\n        /* \"#utility.yul\":6801:6940   */\n    tag_192:\n        /* \"#utility.yul\":6585:6947   */\n      pop\n        /* \"#utility.yul\":6537:6947   */\n      swap3\n      swap2\n      pop\n      pop\n      jump\t// out\n        /* \"#utility.yul\":6953:7133   */\n    tag_119:\n        /* \"#utility.yul\":7001:7078   */\n      0x4e487b7100000000000000000000000000000000000000000000000000000000\n        /* \"#utility.yul\":6998:6999   */\n      0x00\n        /* \"#utility.yul\":6991:7079   */\n      mstore\n        /* \"#utility.yul\":7098:7102   */\n      0x12\n        /* \"#utility.yul\":7095:7096   */\n      0x04\n        /* \"#utility.yul\":7088:7103   */\n      mstore\n        /* \"#utility.yul\":7122:7126   */\n      0x24\n        /* \"#utility.yul\":7119:7120   */\n      0x00\n        /* \"#utility.yul\":7112:7127   */\n      revert\n        /* \"#utility.yul\":7139:7324   */\n    tag_83:\n        /* \"#utility.yul\":7179:7180   */\n      0x00\n        /* \"#utility.yul\":7196:7216   */\n      tag_196\n        /* \"#utility.yul\":7214:7215   */\n      dup3\n        /* \"#utility.yul\":7196:7216   */\n      tag_98\n      jump\t// in\n    tag_196:\n        /* \"#utility.yul\":7191:7216   */\n      swap2\n      pop\n        /* \"#utility.yul\":7230:7250   */\n      tag_197\n        /* \"#utility.yul\":7248:7249   */\n      dup4\n        /* \"#utility.yul\":7230:7250   */\n      tag_98\n      jump\t// in\n    tag_197:\n        /* \"#utility.yul\":7225:7250   */\n      swap3\n      pop\n        /* \"#utility.yul\":7269:7270   */\n      dup3\n        /* \"#utility.yul\":7259:7294   */\n      tag_198\n      jumpi\n        /* \"#utility.yul\":7274:7292   */\n      tag_199\n      tag_119\n      jump\t// in\n    tag_199:\n        /* \"#utility.yul\":7259:7294   */\n    tag_198:\n        /* \"#utility.yul\":7316:7317   */\n      dup3\n        /* \"#utility.yul\":7313:7314   */\n      dup3\n        /* \"#utility.yul\":7309:7318   */\n      div\n        /* \"#utility.yul\":7304:7318   */\n      swap1\n      pop\n        /* \"#utility.yul\":7139:7324   */\n      swap3\n      swap2\n      pop\n      pop\n      jump\t// out\n        /* \"#utility.yul\":7330:7435   */\n    tag_120:\n        /* \"#utility.yul\":7366:7373   */\n      0x00\n        /* \"#utility.yul\":7406:7428   */\n      0xffffffffffffffffffff\n        /* \"#utility.yul\":7399:7404   */\n      dup3\n        /* \"#utility.yul\":7395:7429   */\n      and\n        /* \"#utility.yul\":7384:7429   */\n      swap1\n      pop\n        /* \"#utility.yul\":7330:7435   */\n      swap2\n      swap1\n      pop\n      jump\t// out\n        /* \"#utility.yul\":7441:7561   */\n    tag_121:\n        /* \"#utility.yul\":7513:7536   */\n      tag_202\n        /* \"#utility.yul\":7530:7535   */\n      dup2\n        /* \"#utility.yul\":7513:7536   */\n      tag_120\n      jump\t// in\n    tag_202:\n        /* \"#utility.yul\":7506:7511   */\n      dup2\n        /* \"#utility.yul\":7503:7537   */\n      eq\n        /* \"#utility.yul\":7493:7555   */\n      tag_203\n      jumpi\n        /* \"#utility.yul\":7551:7552   */\n      0x00\n        /* \"#utility.yul\":7548:7549   */\n      dup1\n        /* \"#utility.yul\":7541:7553   */\n      revert\n        /* \"#utility.yul\":7493:7555   */\n    tag_203:\n        /* \"#utility.yul\":7441:7561   */\n      pop\n      jump\t// out\n        /* \"#utility.yul\":7567:7708   */\n    tag_122:\n        /* \"#utility.yul\":7623:7628   */\n      0x00\n        /* \"#utility.yul\":7654:7660   */\n      dup2\n        /* \"#utility.yul\":7648:7661   */\n      mload\n        /* \"#utility.yul\":7639:7661   */\n      swap1\n      pop\n        /* \"#utility.yul\":7670:7702   */\n      tag_205\n        /* \"#utility.yul\":7696:7701   */\n      dup2\n        /* \"#utility.yul\":7670:7702   */\n      tag_121\n      jump\t// in\n    tag_205:\n        /* \"#utility.yul\":7567:7708   */\n      swap3\n      swap2\n      pop\n      pop\n      jump\t// out\n        /* \"#utility.yul\":7714:7790   */\n    tag_123:\n        /* \"#utility.yul\":7750:7757   */\n      0x00\n        /* \"#utility.yul\":7779:7784   */\n      dup2\n        /* \"#utility.yul\":7768:7784   */\n      swap1\n      pop\n        /* \"#utility.yul\":7714:7790   */\n      swap2\n      swap1\n      pop\n      jump\t// out\n        /* \"#utility.yul\":7796:7916   */\n    tag_124:\n        /* \"#utility.yul\":7868:7891   */\n      tag_208\n        /* \"#utility.yul\":7885:7890   */\n      dup2\n        /* \"#utility.yul\":7868:7891   */\n      tag_123\n      jump\t// in\n    tag_208:\n        /* \"#utility.yul\":7861:7866   */\n      dup2\n        /* \"#utility.yul\":7858:7892   */\n      eq\n        /* \"#utility.yul\":7848:7910   */\n      tag_209\n      jumpi\n        /* \"#utility.yul\":7906:7907   */\n      0x00\n        /* \"#utility.yul\":7903:7904   */\n      dup1\n        /* \"#utility.yul\":7896:7908   */\n      revert\n        /* \"#utility.yul\":7848:7910   */\n    tag_209:\n        /* \"#utility.yul\":7796:7916   */\n      pop\n      jump\t// out\n        /* \"#utility.yul\":7922:8063   */\n    tag_125:\n        /* \"#utility.yul\":7978:7983   */\n      0x00\n        /* \"#utility.yul\":8009:8015   */\n      dup2\n        /* \"#utility.yul\":8003:8016   */\n      mload\n        /* \"#utility.yul\":7994:8016   */\n      swap1\n      pop\n        /* \"#utility.yul\":8025:8057   */\n      tag_211\n        /* \"#utility.yul\":8051:8056   */\n      dup2\n        /* \"#utility.yul\":8025:8057   */\n      tag_124\n      jump\t// in\n    tag_211:\n        /* \"#utility.yul\":7922:8063   */\n      swap3\n      swap2\n      pop\n      pop\n      jump\t// out\n        /* \"#utility.yul\":8069:8212   */\n    tag_126:\n        /* \"#utility.yul\":8126:8131   */\n      0x00\n        /* \"#utility.yul\":8157:8163   */\n      dup2\n        /* \"#utility.yul\":8151:8164   */\n      mload\n        /* \"#utility.yul\":8142:8164   */\n      swap1\n      pop\n        /* \"#utility.yul\":8173:8206   */\n      tag_213\n        /* \"#utility.yul\":8200:8205   */\n      dup2\n        /* \"#utility.yul\":8173:8206   */\n      tag_108\n      jump\t// in\n    tag_213:\n        /* \"#utility.yul\":8069:8212   */\n      swap3\n      swap2\n      pop\n      pop\n      jump\t// out\n        /* \"#utility.yul\":8218:9189   */\n    tag_88:\n        /* \"#utility.yul\":8321:8327   */\n      0x00\n        /* \"#utility.yul\":8329:8335   */\n      dup1\n        /* \"#utility.yul\":8337:8343   */\n      0x00\n        /* \"#utility.yul\":8345:8351   */\n      dup1\n        /* \"#utility.yul\":8353:8359   */\n      0x00\n        /* \"#utility.yul\":8402:8405   */\n      0xa0\n        /* \"#utility.yul\":8390:8399   */\n      dup7\n        /* \"#utility.yul\":8381:8388   */\n      dup9\n        /* \"#utility.yul\":8377:8400   */\n      sub\n        /* \"#utility.yul\":8373:8406   */\n      slt\n        /* \"#utility.yul\":8370:8490   */\n      iszero\n      tag_215\n      jumpi\n        /* \"#utility.yul\":8409:8488   */\n      tag_216\n      tag_101\n      jump\t// in\n    tag_216:\n        /* \"#utility.yul\":8370:8490   */\n    tag_215:\n        /* \"#utility.yul\":8529:8530   */\n      0x00\n        /* \"#utility.yul\":8554:8617   */\n      tag_217\n        /* \"#utility.yul\":8609:8616   */\n      dup9\n        /* \"#utility.yul\":8600:8606   */\n      dup3\n        /* \"#utility.yul\":8589:8598   */\n      dup10\n        /* \"#utility.yul\":8585:8607   */\n      add\n        /* \"#utility.yul\":8554:8617   */\n      tag_122\n      jump\t// in\n    tag_217:\n        /* \"#utility.yul\":8544:8617   */\n      swap6\n      pop\n        /* \"#utility.yul\":8500:8627   */\n      pop\n        /* \"#utility.yul\":8666:8668   */\n      0x20\n        /* \"#utility.yul\":8692:8755   */\n      tag_218\n        /* \"#utility.yul\":8747:8754   */\n      dup9\n        /* \"#utility.yul\":8738:8744   */\n      dup3\n        /* \"#utility.yul\":8727:8736   */\n      dup10\n        /* \"#utility.yul\":8723:8745   */\n      add\n        /* \"#utility.yul\":8692:8755   */\n      tag_125\n      jump\t// in\n    tag_218:\n        /* \"#utility.yul\":8682:8755   */\n      swap5\n      pop\n        /* \"#utility.yul\":8637:8765   */\n      pop\n        /* \"#utility.yul\":8804:8806   */\n      0x40\n        /* \"#utility.yul\":8830:8894   */\n      tag_219\n        /* \"#utility.yul\":8886:8893   */\n      dup9\n        /* \"#utility.yul\":8877:8883   */\n      dup3\n        /* \"#utility.yul\":8866:8875   */\n      dup10\n        /* \"#utility.yul\":8862:8884   */\n      add\n        /* \"#utility.yul\":8830:8894   */\n      tag_126\n      jump\t// in\n    tag_219:\n        /* \"#utility.yul\":8820:8894   */\n      swap4\n      pop\n        /* \"#utility.yul\":8775:8904   */\n      pop\n        /* \"#utility.yul\":8943:8945   */\n      0x60\n        /* \"#utility.yul\":8969:9033   */\n      tag_220\n        /* \"#utility.yul\":9025:9032   */\n      dup9\n        /* \"#utility.yul\":9016:9022   */\n      dup3\n        /* \"#utility.yul\":9005:9014   */\n      dup10\n        /* \"#utility.yul\":9001:9023   */\n      add\n        /* \"#utility.yul\":8969:9033   */\n      tag_126\n      jump\t// in\n    tag_220:\n        /* \"#utility.yul\":8959:9033   */\n      swap3\n      pop\n        /* \"#utility.yul\":8914:9043   */\n      pop\n        /* \"#utility.yul\":9082:9085   */\n      0x80\n        /* \"#utility.yul\":9109:9172   */\n      tag_221\n        /* \"#utility.yul\":9164:9171   */\n      dup9\n        /* \"#utility.yul\":9155:9161   */\n      dup3\n        /* \"#utility.yul\":9144:9153   */\n      dup10\n        /* \"#utility.yul\":9140:9162   */\n      add\n        /* \"#utility.yul\":9109:9172   */\n      tag_122\n      jump\t// in\n    tag_221:\n        /* \"#utility.yul\":9099:9172   */\n      swap2\n      pop\n        /* \"#utility.yul\":9053:9182   */\n      pop\n        /* \"#utility.yul\":8218:9189   */\n      swap3\n      swap6\n      pop\n      swap3\n      swap6\n      swap1\n      swap4\n      pop\n      jump\t// out\n        /* \"#utility.yul\":9195:9751   */\n    tag_90:\n        /* \"#utility.yul\":9234:9241   */\n      0x00\n        /* \"#utility.yul\":9257:9276   */\n      tag_223\n        /* \"#utility.yul\":9274:9275   */\n      dup3\n        /* \"#utility.yul\":9257:9276   */\n      tag_123\n      jump\t// in\n    tag_223:\n        /* \"#utility.yul\":9252:9276   */\n      swap2\n      pop\n        /* \"#utility.yul\":9290:9309   */\n      tag_224\n        /* \"#utility.yul\":9307:9308   */\n      dup4\n        /* \"#utility.yul\":9290:9309   */\n      tag_123\n      jump\t// in\n    tag_224:\n        /* \"#utility.yul\":9285:9309   */\n      swap3\n      pop\n        /* \"#utility.yul\":9344:9345   */\n      dup3\n        /* \"#utility.yul\":9341:9342   */\n      dup3\n        /* \"#utility.yul\":9337:9346   */\n      mul\n        /* \"#utility.yul\":9366:9395   */\n      tag_225\n        /* \"#utility.yul\":9383:9394   */\n      dup2\n        /* \"#utility.yul\":9366:9395   */\n      tag_123\n      jump\t// in\n    tag_225:\n        /* \"#utility.yul\":9355:9395   */\n      swap2\n      pop\n        /* \"#utility.yul\":9453:9519   */\n      0x8000000000000000000000000000000000000000000000000000000000000000\n        /* \"#utility.yul\":9450:9451   */\n      dup5\n        /* \"#utility.yul\":9447:9520   */\n      eq\n        /* \"#utility.yul\":9443:9444   */\n      0x00\n        /* \"#utility.yul\":9440:9441   */\n      dup5\n        /* \"#utility.yul\":9436:9445   */\n      slt\n        /* \"#utility.yul\":9432:9521   */\n      and\n        /* \"#utility.yul\":9429:9544   */\n      iszero\n      tag_226\n      jumpi\n        /* \"#utility.yul\":9524:9542   */\n      tag_227\n      tag_113\n      jump\t// in\n    tag_227:\n        /* \"#utility.yul\":9429:9544   */\n    tag_226:\n        /* \"#utility.yul\":9694:9695   */\n      dup3\n        /* \"#utility.yul\":9685:9692   */\n      dup3\n        /* \"#utility.yul\":9680:9696   */\n      sdiv\n        /* \"#utility.yul\":9677:9678   */\n      dup5\n        /* \"#utility.yul\":9674:9697   */\n      eq\n        /* \"#utility.yul\":9654:9655   */\n      dup4\n        /* \"#utility.yul\":9647:9656   */\n      iszero\n        /* \"#utility.yul\":9627:9711   */\n      or\n        /* \"#utility.yul\":9604:9744   */\n      tag_228\n      jumpi\n        /* \"#utility.yul\":9724:9742   */\n      tag_229\n      tag_113\n      jump\t// in\n    tag_229:\n        /* \"#utility.yul\":9604:9744   */\n    tag_228:\n        /* \"#utility.yul\":9242:9751   */\n      pop\n        /* \"#utility.yul\":9195:9751   */\n      swap3\n      swap2\n      pop\n      pop\n      jump\t// out\n\n    auxdata: 0xa2646970667358221220dd049fea63125971e5c978546cd8d0ffc94779310a77621f121acb0c439ad35564736f6c63430008120033\n}\n",
				"bytecode": {
					"linkReferences": {},
					"object": "60a060405234801561001057600080fd5b503373ffffffffffffffffffffffffffffffffffffffff1660808173ffffffffffffffffffffffffffffffffffffffff1681525050608051610c556100676000396000818161026f01526104c70152610c556000f3fe6080604052600436106100595760003560e01c80633430a88c146100725780633ccfd60b1461009d5780633e47d6f3146100b4578063b60d4288146100f1578063dba6335f146100fb578063dc0d3dff1461012657610068565b3661006857610066610163565b005b610070610163565b005b34801561007e57600080fd5b50610087610260565b60405161009491906106cb565b60405180910390f35b3480156100a957600080fd5b506100b261026d565b005b3480156100c057600080fd5b506100db60048036038101906100d69190610749565b6104ad565b6040516100e891906106cb565b60405180910390f35b6100f9610163565b005b34801561010757600080fd5b506101106104c5565b60405161011d9190610785565b60405180910390f35b34801561013257600080fd5b5061014d600480360381019061014891906107cc565b6104e9565b60405161015a9190610785565b60405180910390f35b6802b5e3af16b188000061017634610528565b10156101b7576040517f08c379a00000000000000000000000000000000000000000000000000000000081526004016101ae90610856565b60405180910390fd5b6000339080600181540180825580915050600190039060005260206000200160009091909190916101000a81548173ffffffffffffffffffffffffffffffffffffffff021916908373ffffffffffffffffffffffffffffffffffffffff16021790555034600160003373ffffffffffffffffffffffffffffffffffffffff1673ffffffffffffffffffffffffffffffffffffffff16815260200190815260200160002081905550565b6802b5e3af16b188000081565b7f000000000000000000000000000000000000000000000000000000000000000073ffffffffffffffffffffffffffffffffffffffff163373ffffffffffffffffffffffffffffffffffffffff16146102f2576040517f30cd747100000000000000000000000000000000000000000000000000000000815260040160405180910390fd5b60005b60008054905081101561039d57600080828154811061031757610316610876565b5b9060005260206000200160009054906101000a900473ffffffffffffffffffffffffffffffffffffffff1690506000600160008373ffffffffffffffffffffffffffffffffffffffff1673ffffffffffffffffffffffffffffffffffffffff16815260200190815260200160002081905550508080610395906108d4565b9150506102f5565b50600067ffffffffffffffff8111156103b9576103b861091c565b5b6040519080825280602002602001820160405280156103e75781602001602082028036833780820191505090505b50600090805190602001906103fd92919061060b565b5060003373ffffffffffffffffffffffffffffffffffffffff16476040516104249061097c565b60006040518083038185875af1925050503d8060008114610461576040519150601f19603f3d011682016040523d82523d6000602084013e610466565b606091505b50509050806104aa576040517f08c379a00000000000000000000000000000000000000000000000000000000081526004016104a1906109dd565b60405180910390fd5b50565b60016020528060005260406000206000915090505481565b7f000000000000000000000000000000000000000000000000000000000000000081565b600081815481106104f957600080fd5b906000526020600020016000915054906101000a900473ffffffffffffffffffffffffffffffffffffffff1681565b600080610533610562565b90506000670de0b6b3a7640000848361054c91906109fd565b6105569190610a6e565b90508092505050919050565b60008073694aa1769357215de4fac081bf1f309adc325306905060008173ffffffffffffffffffffffffffffffffffffffff1663feaf968c6040518163ffffffff1660e01b815260040160a060405180830381865afa1580156105c9573d6000803e3d6000fd5b505050506040513d601f19601f820116820180604052508101906105ed9190610b2c565b5050509150506402540be400816106049190610ba7565b9250505090565b828054828255906000526020600020908101928215610684579160200282015b828111156106835782518260006101000a81548173ffffffffffffffffffffffffffffffffffffffff021916908373ffffffffffffffffffffffffffffffffffffffff1602179055509160200191906001019061062b565b5b5090506106919190610695565b5090565b5b808211156106ae576000816000905550600101610696565b5090565b6000819050919050565b6106c5816106b2565b82525050565b60006020820190506106e060008301846106bc565b92915050565b600080fd5b600073ffffffffffffffffffffffffffffffffffffffff82169050919050565b6000610716826106eb565b9050919050565b6107268161070b565b811461073157600080fd5b50565b6000813590506107438161071d565b92915050565b60006020828403121561075f5761075e6106e6565b5b600061076d84828501610734565b91505092915050565b61077f8161070b565b82525050565b600060208201905061079a6000830184610776565b92915050565b6107a9816106b2565b81146107b457600080fd5b50565b6000813590506107c6816107a0565b92915050565b6000602082840312156107e2576107e16106e6565b5b60006107f0848285016107b7565b91505092915050565b600082825260208201905092915050565b7f4e6f7420656e6f7567682066756e640000000000000000000000000000000000600082015250565b6000610840600f836107f9565b915061084b8261080a565b602082019050919050565b6000602082019050818103600083015261086f81610833565b9050919050565b7f4e487b7100000000000000000000000000000000000000000000000000000000600052603260045260246000fd5b7f4e487b7100000000000000000000000000000000000000000000000000000000600052601160045260246000fd5b60006108df826106b2565b91507fffffffffffffffffffffffffffffffffffffffffffffffffffffffffffffffff8203610911576109106108a5565b5b600182019050919050565b7f4e487b7100000000000000000000000000000000000000000000000000000000600052604160045260246000fd5b600081905092915050565b50565b600061096660008361094b565b915061097182610956565b600082019050919050565b600061098782610959565b9150819050919050565b7f43616c6c206661696c6564000000000000000000000000000000000000000000600082015250565b60006109c7600b836107f9565b91506109d282610991565b602082019050919050565b600060208201905081810360008301526109f6816109ba565b9050919050565b6000610a08826106b2565b9150610a13836106b2565b9250828202610a21816106b2565b91508282048414831517610a3857610a376108a5565b5b5092915050565b7f4e487b7100000000000000000000000000000000000000000000000000000000600052601260045260246000fd5b6000610a79826106b2565b9150610a84836106b2565b925082610a9457610a93610a3f565b5b828204905092915050565b600069ffffffffffffffffffff82169050919050565b610abe81610a9f565b8114610ac957600080fd5b50565b600081519050610adb81610ab5565b92915050565b6000819050919050565b610af481610ae1565b8114610aff57600080fd5b50565b600081519050610b1181610aeb565b92915050565b600081519050610b26816107a0565b92915050565b600080600080600060a08688031215610b4857610b476106e6565b5b6000610b5688828901610acc565b9550506020610b6788828901610b02565b9450506040610b7888828901610b17565b9350506060610b8988828901610b17565b9250506080610b9a88828901610acc565b9150509295509295909350565b6000610bb282610ae1565b9150610bbd83610ae1565b9250828202610bcb81610ae1565b91507f80000000000000000000000000000000000000000000000000000000000000008414600084121615610c0357610c026108a5565b5b8282058414831517610c1857610c176108a5565b5b509291505056fea2646970667358221220dd049fea63125971e5c978546cd8d0ffc94779310a77621f121acb0c439ad35564736f6c63430008120033",
					"opcodes": "PUSH1 0xA0 PUSH1 0x40 MSTORE CALLVALUE DUP1 ISZERO PUSH2 0x10 JUMPI PUSH1 0x0 DUP1 REVERT JUMPDEST POP CALLER PUSH20 0xFFFFFFFFFFFFFFFFFFFFFFFFFFFFFFFFFFFFFFFF AND PUSH1 0x80 DUP2 PUSH20 0xFFFFFFFFFFFFFFFFFFFFFFFFFFFFFFFFFFFFFFFF AND DUP2 MSTORE POP POP PUSH1 0x80 MLOAD PUSH2 0xC55 PUSH2 0x67 PUSH1 0x0 CODECOPY PUSH1 0x0 DUP2 DUP2 PUSH2 0x26F ADD MSTORE PUSH2 0x4C7 ADD MSTORE PUSH2 0xC55 PUSH1 0x0 RETURN INVALID PUSH1 0x80 PUSH1 0x40 MSTORE PUSH1 0x4 CALLDATASIZE LT PUSH2 0x59 JUMPI PUSH1 0x0 CALLDATALOAD PUSH1 0xE0 SHR DUP1 PUSH4 0x3430A88C EQ PUSH2 0x72 JUMPI DUP1 PUSH4 0x3CCFD60B EQ PUSH2 0x9D JUMPI DUP1 PUSH4 0x3E47D6F3 EQ PUSH2 0xB4 JUMPI DUP1 PUSH4 0xB60D4288 EQ PUSH2 0xF1 JUMPI DUP1 PUSH4 0xDBA6335F EQ PUSH2 0xFB JUMPI DUP1 PUSH4 0xDC0D3DFF EQ PUSH2 0x126 JUMPI PUSH2 0x68 JUMP JUMPDEST CALLDATASIZE PUSH2 0x68 JUMPI PUSH2 0x66 PUSH2 0x163 JUMP JUMPDEST STOP JUMPDEST PUSH2 0x70 PUSH2 0x163 JUMP JUMPDEST STOP JUMPDEST CALLVALUE DUP1 ISZERO PUSH2 0x7E JUMPI PUSH1 0x0 DUP1 REVERT JUMPDEST POP PUSH2 0x87 PUSH2 0x260 JUMP JUMPDEST PUSH1 0x40 MLOAD PUSH2 0x94 SWAP2 SWAP1 PUSH2 0x6CB JUMP JUMPDEST PUSH1 0x40 MLOAD DUP1 SWAP2 SUB SWAP1 RETURN JUMPDEST CALLVALUE DUP1 ISZERO PUSH2 0xA9 JUMPI PUSH1 0x0 DUP1 REVERT JUMPDEST POP PUSH2 0xB2 PUSH2 0x26D JUMP JUMPDEST STOP JUMPDEST CALLVALUE DUP1 ISZERO PUSH2 0xC0 JUMPI PUSH1 0x0 DUP1 REVERT JUMPDEST POP PUSH2 0xDB PUSH1 0x4 DUP1 CALLDATASIZE SUB DUP2 ADD SWAP1 PUSH2 0xD6 SWAP2 SWAP1 PUSH2 0x749 JUMP JUMPDEST PUSH2 0x4AD JUMP JUMPDEST PUSH1 0x40 MLOAD PUSH2 0xE8 SWAP2 SWAP1 PUSH2 0x6CB JUMP JUMPDEST PUSH1 0x40 MLOAD DUP1 SWAP2 SUB SWAP1 RETURN JUMPDEST PUSH2 0xF9 PUSH2 0x163 JUMP JUMPDEST STOP JUMPDEST CALLVALUE DUP1 ISZERO PUSH2 0x107 JUMPI PUSH1 0x0 DUP1 REVERT JUMPDEST POP PUSH2 0x110 PUSH2 0x4C5 JUMP JUMPDEST PUSH1 0x40 MLOAD PUSH2 0x11D SWAP2 SWAP1 PUSH2 0x785 JUMP JUMPDEST PUSH1 0x40 MLOAD DUP1 SWAP2 SUB SWAP1 RETURN JUMPDEST CALLVALUE DUP1 ISZERO PUSH2 0x132 JUMPI PUSH1 0x0 DUP1 REVERT JUMPDEST POP PUSH2 0x14D PUSH1 0x4 DUP1 CALLDATASIZE SUB DUP2 ADD SWAP1 PUSH2 0x148 SWAP2 SWAP1 PUSH2 0x7CC JUMP JUMPDEST PUSH2 0x4E9 JUMP JUMPDEST PUSH1 0x40 MLOAD PUSH2 0x15A SWAP2 SWAP1 PUSH2 0x785 JUMP JUMPDEST PUSH1 0x40 MLOAD DUP1 SWAP2 SUB SWAP1 RETURN JUMPDEST PUSH9 0x2B5E3AF16B1880000 PUSH2 0x176 CALLVALUE PUSH2 0x528 JUMP JUMPDEST LT ISZERO PUSH2 0x1B7 JUMPI PUSH1 0x40 MLOAD PUSH32 0x8C379A000000000000000000000000000000000000000000000000000000000 DUP2 MSTORE PUSH1 0x4 ADD PUSH2 0x1AE SWAP1 PUSH2 0x856 JUMP JUMPDEST PUSH1 0x40 MLOAD DUP1 SWAP2 SUB SWAP1 REVERT JUMPDEST PUSH1 0x0 CALLER SWAP1 DUP1 PUSH1 0x1 DUP2 SLOAD ADD DUP1 DUP3 SSTORE DUP1 SWAP2 POP POP PUSH1 0x1 SWAP1 SUB SWAP1 PUSH1 0x0 MSTORE PUSH1 0x20 PUSH1 0x0 KECCAK256 ADD PUSH1 0x0 SWAP1 SWAP2 SWAP1 SWAP2 SWAP1 SWAP2 PUSH2 0x100 EXP DUP2 SLOAD DUP2 PUSH20 0xFFFFFFFFFFFFFFFFFFFFFFFFFFFFFFFFFFFFFFFF MUL NOT AND SWAP1 DUP4 PUSH20 0xFFFFFFFFFFFFFFFFFFFFFFFFFFFFFFFFFFFFFFFF AND MUL OR SWAP1 SSTORE POP CALLVALUE PUSH1 0x1 PUSH1 0x0 CALLER PUSH20 0xFFFFFFFFFFFFFFFFFFFFFFFFFFFFFFFFFFFFFFFF AND PUSH20 0xFFFFFFFFFFFFFFFFFFFFFFFFFFFFFFFFFFFFFFFF AND DUP2 MSTORE PUSH1 0x20 ADD SWAP1 DUP2 MSTORE PUSH1 0x20 ADD PUSH1 0x0 KECCAK256 DUP2 SWAP1 SSTORE POP JUMP JUMPDEST PUSH9 0x2B5E3AF16B1880000 DUP2 JUMP JUMPDEST PUSH32 0x0 PUSH20 0xFFFFFFFFFFFFFFFFFFFFFFFFFFFFFFFFFFFFFFFF AND CALLER PUSH20 0xFFFFFFFFFFFFFFFFFFFFFFFFFFFFFFFFFFFFFFFF AND EQ PUSH2 0x2F2 JUMPI PUSH1 0x40 MLOAD PUSH32 0x30CD747100000000000000000000000000000000000000000000000000000000 DUP2 MSTORE PUSH1 0x4 ADD PUSH1 0x40 MLOAD DUP1 SWAP2 SUB SWAP1 REVERT JUMPDEST PUSH1 0x0 JUMPDEST PUSH1 0x0 DUP1 SLOAD SWAP1 POP DUP2 LT ISZERO PUSH2 0x39D JUMPI PUSH1 0x0 DUP1 DUP3 DUP2 SLOAD DUP2 LT PUSH2 0x317 JUMPI PUSH2 0x316 PUSH2 0x876 JUMP JUMPDEST JUMPDEST SWAP1 PUSH1 0x0 MSTORE PUSH1 0x20 PUSH1 0x0 KECCAK256 ADD PUSH1 0x0 SWAP1 SLOAD SWAP1 PUSH2 0x100 EXP SWAP1 DIV PUSH20 0xFFFFFFFFFFFFFFFFFFFFFFFFFFFFFFFFFFFFFFFF AND SWAP1 POP PUSH1 0x0 PUSH1 0x1 PUSH1 0x0 DUP4 PUSH20 0xFFFFFFFFFFFFFFFFFFFFFFFFFFFFFFFFFFFFFFFF AND PUSH20 0xFFFFFFFFFFFFFFFFFFFFFFFFFFFFFFFFFFFFFFFF AND DUP2 MSTORE PUSH1 0x20 ADD SWAP1 DUP2 MSTORE PUSH1 0x20 ADD PUSH1 0x0 KECCAK256 DUP2 SWAP1 SSTORE POP POP DUP1 DUP1 PUSH2 0x395 SWAP1 PUSH2 0x8D4 JUMP JUMPDEST SWAP2 POP POP PUSH2 0x2F5 JUMP JUMPDEST POP PUSH1 0x0 PUSH8 0xFFFFFFFFFFFFFFFF DUP2 GT ISZERO PUSH2 0x3B9 JUMPI PUSH2 0x3B8 PUSH2 0x91C JUMP JUMPDEST JUMPDEST PUSH1 0x40 MLOAD SWAP1 DUP1 DUP3 MSTORE DUP1 PUSH1 0x20 MUL PUSH1 0x20 ADD DUP3 ADD PUSH1 0x40 MSTORE DUP1 ISZERO PUSH2 0x3E7 JUMPI DUP2 PUSH1 0x20 ADD PUSH1 0x20 DUP3 MUL DUP1 CALLDATASIZE DUP4 CALLDATACOPY DUP1 DUP3 ADD SWAP2 POP POP SWAP1 POP JUMPDEST POP PUSH1 0x0 SWAP1 DUP1 MLOAD SWAP1 PUSH1 0x20 ADD SWAP1 PUSH2 0x3FD SWAP3 SWAP2 SWAP1 PUSH2 0x60B JUMP JUMPDEST POP PUSH1 0x0 CALLER PUSH20 0xFFFFFFFFFFFFFFFFFFFFFFFFFFFFFFFFFFFFFFFF AND SELFBALANCE PUSH1 0x40 MLOAD PUSH2 0x424 SWAP1 PUSH2 0x97C JUMP JUMPDEST PUSH1 0x0 PUSH1 0x40 MLOAD DUP1 DUP4 SUB DUP2 DUP6 DUP8 GAS CALL SWAP3 POP POP POP RETURNDATASIZE DUP1 PUSH1 0x0 DUP2 EQ PUSH2 0x461 JUMPI PUSH1 0x40 MLOAD SWAP2 POP PUSH1 0x1F NOT PUSH1 0x3F RETURNDATASIZE ADD AND DUP3 ADD PUSH1 0x40 MSTORE RETURNDATASIZE DUP3 MSTORE RETURNDATASIZE PUSH1 0x0 PUSH1 0x20 DUP5 ADD RETURNDATACOPY PUSH2 0x466 JUMP JUMPDEST PUSH1 0x60 SWAP2 POP JUMPDEST POP POP SWAP1 POP DUP1 PUSH2 0x4AA JUMPI PUSH1 0x40 MLOAD PUSH32 0x8C379A000000000000000000000000000000000000000000000000000000000 DUP2 MSTORE PUSH1 0x4 ADD PUSH2 0x4A1 SWAP1 PUSH2 0x9DD JUMP JUMPDEST PUSH1 0x40 MLOAD DUP1 SWAP2 SUB SWAP1 REVERT JUMPDEST POP JUMP JUMPDEST PUSH1 0x1 PUSH1 0x20 MSTORE DUP1 PUSH1 0x0 MSTORE PUSH1 0x40 PUSH1 0x0 KECCAK256 PUSH1 0x0 SWAP2 POP SWAP1 POP SLOAD DUP2 JUMP JUMPDEST PUSH32 0x0 DUP2 JUMP JUMPDEST PUSH1 0x0 DUP2 DUP2 SLOAD DUP2 LT PUSH2 0x4F9 JUMPI PUSH1 0x0 DUP1 REVERT JUMPDEST SWAP1 PUSH1 0x0 MSTORE PUSH1 0x20 PUSH1 0x0 KECCAK256 ADD PUSH1 0x0 SWAP2 POP SLOAD SWAP1 PUSH2 0x100 EXP SWAP1 DIV PUSH20 0xFFFFFFFFFFFFFFFFFFFFFFFFFFFFFFFFFFFFFFFF AND DUP2 JUMP JUMPDEST PUSH1 0x0 DUP1 PUSH2 0x533 PUSH2 0x562 JUMP JUMPDEST SWAP1 POP PUSH1 0x0 PUSH8 0xDE0B6B3A7640000 DUP5 DUP4 PUSH2 0x54C SWAP2 SWAP1 PUSH2 0x9FD JUMP JUMPDEST PUSH2 0x556 SWAP2 SWAP1 PUSH2 0xA6E JUMP JUMPDEST SWAP1 POP DUP1 SWAP3 POP POP POP SWAP2 SWAP1 POP JUMP JUMPDEST PUSH1 0x0 DUP1 PUSH20 0x694AA1769357215DE4FAC081BF1F309ADC325306 SWAP1 POP PUSH1 0x0 DUP2 PUSH20 0xFFFFFFFFFFFFFFFFFFFFFFFFFFFFFFFFFFFFFFFF AND PUSH4 0xFEAF968C PUSH1 0x40 MLOAD DUP2 PUSH4 0xFFFFFFFF AND PUSH1 0xE0 SHL DUP2 MSTORE PUSH1 0x4 ADD PUSH1 0xA0 PUSH1 0x40 MLOAD DUP1 DUP4 SUB DUP2 DUP7 GAS STATICCALL ISZERO DUP1 ISZERO PUSH2 0x5C9 JUMPI RETURNDATASIZE PUSH1 0x0 DUP1 RETURNDATACOPY RETURNDATASIZE PUSH1 0x0 REVERT JUMPDEST POP POP POP POP PUSH1 0x40 MLOAD RETURNDATASIZE PUSH1 0x1F NOT PUSH1 0x1F DUP3 ADD AND DUP3 ADD DUP1 PUSH1 0x40 MSTORE POP DUP2 ADD SWAP1 PUSH2 0x5ED SWAP2 SWAP1 PUSH2 0xB2C JUMP JUMPDEST POP POP POP SWAP2 POP POP PUSH5 0x2540BE400 DUP2 PUSH2 0x604 SWAP2 SWAP1 PUSH2 0xBA7 JUMP JUMPDEST SWAP3 POP POP POP SWAP1 JUMP JUMPDEST DUP3 DUP1 SLOAD DUP3 DUP3 SSTORE SWAP1 PUSH1 0x0 MSTORE PUSH1 0x20 PUSH1 0x0 KECCAK256 SWAP1 DUP2 ADD SWAP3 DUP3 ISZERO PUSH2 0x684 JUMPI SWAP2 PUSH1 0x20 MUL DUP3 ADD JUMPDEST DUP3 DUP2 GT ISZERO PUSH2 0x683 JUMPI DUP3 MLOAD DUP3 PUSH1 0x0 PUSH2 0x100 EXP DUP2 SLOAD DUP2 PUSH20 0xFFFFFFFFFFFFFFFFFFFFFFFFFFFFFFFFFFFFFFFF MUL NOT AND SWAP1 DUP4 PUSH20 0xFFFFFFFFFFFFFFFFFFFFFFFFFFFFFFFFFFFFFFFF AND MUL OR SWAP1 SSTORE POP SWAP2 PUSH1 0x20 ADD SWAP2 SWAP1 PUSH1 0x1 ADD SWAP1 PUSH2 0x62B JUMP JUMPDEST JUMPDEST POP SWAP1 POP PUSH2 0x691 SWAP2 SWAP1 PUSH2 0x695 JUMP JUMPDEST POP SWAP1 JUMP JUMPDEST JUMPDEST DUP1 DUP3 GT ISZERO PUSH2 0x6AE JUMPI PUSH1 0x0 DUP2 PUSH1 0x0 SWAP1 SSTORE POP PUSH1 0x1 ADD PUSH2 0x696 JUMP JUMPDEST POP SWAP1 JUMP JUMPDEST PUSH1 0x0 DUP2 SWAP1 POP SWAP2 SWAP1 POP JUMP JUMPDEST PUSH2 0x6C5 DUP2 PUSH2 0x6B2 JUMP JUMPDEST DUP3 MSTORE POP POP JUMP JUMPDEST PUSH1 0x0 PUSH1 0x20 DUP3 ADD SWAP1 POP PUSH2 0x6E0 PUSH1 0x0 DUP4 ADD DUP5 PUSH2 0x6BC JUMP JUMPDEST SWAP3 SWAP2 POP POP JUMP JUMPDEST PUSH1 0x0 DUP1 REVERT JUMPDEST PUSH1 0x0 PUSH20 0xFFFFFFFFFFFFFFFFFFFFFFFFFFFFFFFFFFFFFFFF DUP3 AND SWAP1 POP SWAP2 SWAP1 POP JUMP JUMPDEST PUSH1 0x0 PUSH2 0x716 DUP3 PUSH2 0x6EB JUMP JUMPDEST SWAP1 POP SWAP2 SWAP1 POP JUMP JUMPDEST PUSH2 0x726 DUP2 PUSH2 0x70B JUMP JUMPDEST DUP2 EQ PUSH2 0x731 JUMPI PUSH1 0x0 DUP1 REVERT JUMPDEST POP JUMP JUMPDEST PUSH1 0x0 DUP2 CALLDATALOAD SWAP1 POP PUSH2 0x743 DUP2 PUSH2 0x71D JUMP JUMPDEST SWAP3 SWAP2 POP POP JUMP JUMPDEST PUSH1 0x0 PUSH1 0x20 DUP3 DUP5 SUB SLT ISZERO PUSH2 0x75F JUMPI PUSH2 0x75E PUSH2 0x6E6 JUMP JUMPDEST JUMPDEST PUSH1 0x0 PUSH2 0x76D DUP5 DUP3 DUP6 ADD PUSH2 0x734 JUMP JUMPDEST SWAP2 POP POP SWAP3 SWAP2 POP POP JUMP JUMPDEST PUSH2 0x77F DUP2 PUSH2 0x70B JUMP JUMPDEST DUP3 MSTORE POP POP JUMP JUMPDEST PUSH1 0x0 PUSH1 0x20 DUP3 ADD SWAP1 POP PUSH2 0x79A PUSH1 0x0 DUP4 ADD DUP5 PUSH2 0x776 JUMP JUMPDEST SWAP3 SWAP2 POP POP JUMP JUMPDEST PUSH2 0x7A9 DUP2 PUSH2 0x6B2 JUMP JUMPDEST DUP2 EQ PUSH2 0x7B4 JUMPI PUSH1 0x0 DUP1 REVERT JUMPDEST POP JUMP JUMPDEST PUSH1 0x0 DUP2 CALLDATALOAD SWAP1 POP PUSH2 0x7C6 DUP2 PUSH2 0x7A0 JUMP JUMPDEST SWAP3 SWAP2 POP POP JUMP JUMPDEST PUSH1 0x0 PUSH1 0x20 DUP3 DUP5 SUB SLT ISZERO PUSH2 0x7E2 JUMPI PUSH2 0x7E1 PUSH2 0x6E6 JUMP JUMPDEST JUMPDEST PUSH1 0x0 PUSH2 0x7F0 DUP5 DUP3 DUP6 ADD PUSH2 0x7B7 JUMP JUMPDEST SWAP2 POP POP SWAP3 SWAP2 POP POP JUMP JUMPDEST PUSH1 0x0 DUP3 DUP3 MSTORE PUSH1 0x20 DUP3 ADD SWAP1 POP SWAP3 SWAP2 POP POP JUMP JUMPDEST PUSH32 0x4E6F7420656E6F7567682066756E640000000000000000000000000000000000 PUSH1 0x0 DUP3 ADD MSTORE POP JUMP JUMPDEST PUSH1 0x0 PUSH2 0x840 PUSH1 0xF DUP4 PUSH2 0x7F9 JUMP JUMPDEST SWAP2 POP PUSH2 0x84B DUP3 PUSH2 0x80A JUMP JUMPDEST PUSH1 0x20 DUP3 ADD SWAP1 POP SWAP2 SWAP1 POP JUMP JUMPDEST PUSH1 0x0 PUSH1 0x20 DUP3 ADD SWAP1 POP DUP2 DUP2 SUB PUSH1 0x0 DUP4 ADD MSTORE PUSH2 0x86F DUP2 PUSH2 0x833 JUMP JUMPDEST SWAP1 POP SWAP2 SWAP1 POP JUMP JUMPDEST PUSH32 0x4E487B7100000000000000000000000000000000000000000000000000000000 PUSH1 0x0 MSTORE PUSH1 0x32 PUSH1 0x4 MSTORE PUSH1 0x24 PUSH1 0x0 REVERT JUMPDEST PUSH32 0x4E487B7100000000000000000000000000000000000000000000000000000000 PUSH1 0x0 MSTORE PUSH1 0x11 PUSH1 0x4 MSTORE PUSH1 0x24 PUSH1 0x0 REVERT JUMPDEST PUSH1 0x0 PUSH2 0x8DF DUP3 PUSH2 0x6B2 JUMP JUMPDEST SWAP2 POP PUSH32 0xFFFFFFFFFFFFFFFFFFFFFFFFFFFFFFFFFFFFFFFFFFFFFFFFFFFFFFFFFFFFFFFF DUP3 SUB PUSH2 0x911 JUMPI PUSH2 0x910 PUSH2 0x8A5 JUMP JUMPDEST JUMPDEST PUSH1 0x1 DUP3 ADD SWAP1 POP SWAP2 SWAP1 POP JUMP JUMPDEST PUSH32 0x4E487B7100000000000000000000000000000000000000000000000000000000 PUSH1 0x0 MSTORE PUSH1 0x41 PUSH1 0x4 MSTORE PUSH1 0x24 PUSH1 0x0 REVERT JUMPDEST PUSH1 0x0 DUP2 SWAP1 POP SWAP3 SWAP2 POP POP JUMP JUMPDEST POP JUMP JUMPDEST PUSH1 0x0 PUSH2 0x966 PUSH1 0x0 DUP4 PUSH2 0x94B JUMP JUMPDEST SWAP2 POP PUSH2 0x971 DUP3 PUSH2 0x956 JUMP JUMPDEST PUSH1 0x0 DUP3 ADD SWAP1 POP SWAP2 SWAP1 POP JUMP JUMPDEST PUSH1 0x0 PUSH2 0x987 DUP3 PUSH2 0x959 JUMP JUMPDEST SWAP2 POP DUP2 SWAP1 POP SWAP2 SWAP1 POP JUMP JUMPDEST PUSH32 0x43616C6C206661696C6564000000000000000000000000000000000000000000 PUSH1 0x0 DUP3 ADD MSTORE POP JUMP JUMPDEST PUSH1 0x0 PUSH2 0x9C7 PUSH1 0xB DUP4 PUSH2 0x7F9 JUMP JUMPDEST SWAP2 POP PUSH2 0x9D2 DUP3 PUSH2 0x991 JUMP JUMPDEST PUSH1 0x20 DUP3 ADD SWAP1 POP SWAP2 SWAP1 POP JUMP JUMPDEST PUSH1 0x0 PUSH1 0x20 DUP3 ADD SWAP1 POP DUP2 DUP2 SUB PUSH1 0x0 DUP4 ADD MSTORE PUSH2 0x9F6 DUP2 PUSH2 0x9BA JUMP JUMPDEST SWAP1 POP SWAP2 SWAP1 POP JUMP JUMPDEST PUSH1 0x0 PUSH2 0xA08 DUP3 PUSH2 0x6B2 JUMP JUMPDEST SWAP2 POP PUSH2 0xA13 DUP4 PUSH2 0x6B2 JUMP JUMPDEST SWAP3 POP DUP3 DUP3 MUL PUSH2 0xA21 DUP2 PUSH2 0x6B2 JUMP JUMPDEST SWAP2 POP DUP3 DUP3 DIV DUP5 EQ DUP4 ISZERO OR PUSH2 0xA38 JUMPI PUSH2 0xA37 PUSH2 0x8A5 JUMP JUMPDEST JUMPDEST POP SWAP3 SWAP2 POP POP JUMP JUMPDEST PUSH32 0x4E487B7100000000000000000000000000000000000000000000000000000000 PUSH1 0x0 MSTORE PUSH1 0x12 PUSH1 0x4 MSTORE PUSH1 0x24 PUSH1 0x0 REVERT JUMPDEST PUSH1 0x0 PUSH2 0xA79 DUP3 PUSH2 0x6B2 JUMP JUMPDEST SWAP2 POP PUSH2 0xA84 DUP4 PUSH2 0x6B2 JUMP JUMPDEST SWAP3 POP DUP3 PUSH2 0xA94 JUMPI PUSH2 0xA93 PUSH2 0xA3F JUMP JUMPDEST JUMPDEST DUP3 DUP3 DIV SWAP1 POP SWAP3 SWAP2 POP POP JUMP JUMPDEST PUSH1 0x0 PUSH10 0xFFFFFFFFFFFFFFFFFFFF DUP3 AND SWAP1 POP SWAP2 SWAP1 POP JUMP JUMPDEST PUSH2 0xABE DUP2 PUSH2 0xA9F JUMP JUMPDEST DUP2 EQ PUSH2 0xAC9 JUMPI PUSH1 0x0 DUP1 REVERT JUMPDEST POP JUMP JUMPDEST PUSH1 0x0 DUP2 MLOAD SWAP1 POP PUSH2 0xADB DUP2 PUSH2 0xAB5 JUMP JUMPDEST SWAP3 SWAP2 POP POP JUMP JUMPDEST PUSH1 0x0 DUP2 SWAP1 POP SWAP2 SWAP1 POP JUMP JUMPDEST PUSH2 0xAF4 DUP2 PUSH2 0xAE1 JUMP JUMPDEST DUP2 EQ PUSH2 0xAFF JUMPI PUSH1 0x0 DUP1 REVERT JUMPDEST POP JUMP JUMPDEST PUSH1 0x0 DUP2 MLOAD SWAP1 POP PUSH2 0xB11 DUP2 PUSH2 0xAEB JUMP JUMPDEST SWAP3 SWAP2 POP POP JUMP JUMPDEST PUSH1 0x0 DUP2 MLOAD SWAP1 POP PUSH2 0xB26 DUP2 PUSH2 0x7A0 JUMP JUMPDEST SWAP3 SWAP2 POP POP JUMP JUMPDEST PUSH1 0x0 DUP1 PUSH1 0x0 DUP1 PUSH1 0x0 PUSH1 0xA0 DUP7 DUP9 SUB SLT ISZERO PUSH2 0xB48 JUMPI PUSH2 0xB47 PUSH2 0x6E6 JUMP JUMPDEST JUMPDEST PUSH1 0x0 PUSH2 0xB56 DUP9 DUP3 DUP10 ADD PUSH2 0xACC JUMP JUMPDEST SWAP6 POP POP PUSH1 0x20 PUSH2 0xB67 DUP9 DUP3 DUP10 ADD PUSH2 0xB02 JUMP JUMPDEST SWAP5 POP POP PUSH1 0x40 PUSH2 0xB78 DUP9 DUP3 DUP10 ADD PUSH2 0xB17 JUMP JUMPDEST SWAP4 POP POP PUSH1 0x60 PUSH2 0xB89 DUP9 DUP3 DUP10 ADD PUSH2 0xB17 JUMP JUMPDEST SWAP3 POP POP PUSH1 0x80 PUSH2 0xB9A DUP9 DUP3 DUP10 ADD PUSH2 0xACC JUMP JUMPDEST SWAP2 POP POP SWAP3 SWAP6 POP SWAP3 SWAP6 SWAP1 SWAP4 POP JUMP JUMPDEST PUSH1 0x0 PUSH2 0xBB2 DUP3 PUSH2 0xAE1 JUMP JUMPDEST SWAP2 POP PUSH2 0xBBD DUP4 PUSH2 0xAE1 JUMP JUMPDEST SWAP3 POP DUP3 DUP3 MUL PUSH2 0xBCB DUP2 PUSH2 0xAE1 JUMP JUMPDEST SWAP2 POP PUSH32 0x8000000000000000000000000000000000000000000000000000000000000000 DUP5 EQ PUSH1 0x0 DUP5 SLT AND ISZERO PUSH2 0xC03 JUMPI PUSH2 0xC02 PUSH2 0x8A5 JUMP JUMPDEST JUMPDEST DUP3 DUP3 SDIV DUP5 EQ DUP4 ISZERO OR PUSH2 0xC18 JUMPI PUSH2 0xC17 PUSH2 0x8A5 JUMP JUMPDEST JUMPDEST POP SWAP3 SWAP2 POP POP JUMP INVALID LOG2 PUSH5 0x6970667358 0x22 SLT KECCAK256 0xDD DIV SWAP16 0xEA PUSH4 0x125971E5 0xC9 PUSH25 0x546CD8D0FFC94779310A77621F121ACB0C439AD35564736F6C PUSH4 0x43000812 STOP CALLER "
				},
				"gasEstimates": {
					"creation": {
						"codeDepositCost": "631400",
						"executionCost": "infinite",
						"totalCost": "infinite"
					},
					"external": {
						"": "infinite",
						"addressToAmountFunded(address)": "2836",
						"fund()": "infinite",
						"funders(uint256)": "5044",
						"i_owner()": "infinite",
						"minimumUSD()": "307",
						"withdraw()": "infinite"
					}
				},
				"methodIdentifiers": {
					"addressToAmountFunded(address)": "3e47d6f3",
					"fund()": "b60d4288",
					"funders(uint256)": "dc0d3dff",
					"i_owner()": "dba6335f",
					"minimumUSD()": "3430a88c",
					"withdraw()": "3ccfd60b"
				}
			},
			"storageLayout": {
				"storage": [
					{
						"astId": 61,
						"contract": "contracts/FundMe.sol:FundMe",
						"label": "funders",
						"offset": 0,
						"slot": "0",
						"type": "t_array(t_address)dyn_storage"
					},
					{
						"astId": 65,
						"contract": "contracts/FundMe.sol:FundMe",
						"label": "addressToAmountFunded",
						"offset": 0,
						"slot": "1",
						"type": "t_mapping(t_address,t_uint256)"
					}
				],
				"types": {
					"t_address": {
						"encoding": "inplace",
						"label": "address",
						"numberOfBytes": "20"
					},
					"t_array(t_address)dyn_storage": {
						"base": "t_address",
						"encoding": "dynamic_array",
						"label": "address[]",
						"numberOfBytes": "32"
					},
					"t_mapping(t_address,t_uint256)": {
						"encoding": "mapping",
						"key": "t_address",
						"label": "mapping(address => uint256)",
						"numberOfBytes": "32",
						"value": "t_uint256"
					},
					"t_uint256": {
						"encoding": "inplace",
						"label": "uint256",
						"numberOfBytes": "32"
					}
				}
			},
			"userdoc": {
				"kind": "user",
				"methods": {},
				"version": 1
			}
		}
	}
}