{
	"contracts/FundMe.sol": {
		"FundMe": {
			"abi": [
				{
					"inputs": [
						{
							"internalType": "address",
							"name": "",
							"type": "address"
						}
					],
					"name": "addressToAmountFunded",
					"outputs": [
						{
							"internalType": "uint256",
							"name": "",
							"type": "uint256"
						}
					],
					"stateMutability": "view",
					"type": "function"
				},
				{
					"inputs": [],
					"name": "fund",
					"outputs": [],
					"stateMutability": "payable",
					"type": "function"
				},
				{
					"inputs": [
						{
							"internalType": "uint256",
							"name": "",
							"type": "uint256"
						}
					],
					"name": "funders",
					"outputs": [
						{
							"internalType": "address",
							"name": "",
							"type": "address"
						}
					],
					"stateMutability": "view",
					"type": "function"
				},
				{
					"inputs": [],
					"name": "minimumUSD",
					"outputs": [
						{
							"internalType": "uint256",
							"name": "",
							"type": "uint256"
						}
					],
					"stateMutability": "view",
					"type": "function"
				},
				{
					"inputs": [],
					"name": "withdraw",
					"outputs": [],
					"stateMutability": "nonpayable",
					"type": "function"
				}
			],
			"devdoc": {
				"kind": "dev",
				"methods": {},
				"version": 1
			},
			"evm": {
				"assembly": "    /* \"contracts/FundMe.sol\":176:1091  contract FundMe{... */\n  mstore(0x40, 0x80)\n    /* \"contracts/FundMe.sol\":265:273  50 *1e18 */\n  0x02b5e3af16b1880000\n    /* \"contracts/FundMe.sol\":239:273  uint256 public minimumUSD=50 *1e18 */\n  0x00\n  sstore\n    /* \"contracts/FundMe.sol\":176:1091  contract FundMe{... */\n  callvalue\n  dup1\n  iszero\n  tag_1\n  jumpi\n  0x00\n  dup1\n  revert\ntag_1:\n  pop\n  dataSize(sub_0)\n  dup1\n  dataOffset(sub_0)\n  0x00\n  codecopy\n  0x00\n  return\nstop\n\nsub_0: assembly {\n        /* \"contracts/FundMe.sol\":176:1091  contract FundMe{... */\n      mstore(0x40, 0x80)\n      jumpi(tag_1, lt(calldatasize, 0x04))\n      shr(0xe0, calldataload(0x00))\n      dup1\n      0x3430a88c\n      eq\n      tag_2\n      jumpi\n      dup1\n      0x3ccfd60b\n      eq\n      tag_3\n      jumpi\n      dup1\n      0x3e47d6f3\n      eq\n      tag_4\n      jumpi\n      dup1\n      0xb60d4288\n      eq\n      tag_5\n      jumpi\n      dup1\n      0xdc0d3dff\n      eq\n      tag_6\n      jumpi\n    tag_1:\n      0x00\n      dup1\n      revert\n        /* \"contracts/FundMe.sol\":239:273  uint256 public minimumUSD=50 *1e18 */\n    tag_2:\n      callvalue\n      dup1\n      iszero\n      tag_7\n      jumpi\n      0x00\n      dup1\n      revert\n    tag_7:\n      pop\n      tag_8\n      tag_9\n      jump\t// in\n    tag_8:\n      mload(0x40)\n      tag_10\n      swap2\n      swap1\n      tag_11\n      jump\t// in\n    tag_10:\n      mload(0x40)\n      dup1\n      swap2\n      sub\n      swap1\n      return\n        /* \"contracts/FundMe.sol\":685:1080  function withdraw() public {... */\n    tag_3:\n      callvalue\n      dup1\n      iszero\n      tag_12\n      jumpi\n      0x00\n      dup1\n      revert\n    tag_12:\n      pop\n      tag_13\n      tag_14\n      jump\t// in\n    tag_13:\n      stop\n        /* \"contracts/FundMe.sol\":311:366  mapping (address=>uint256) public addressToAmountFunded */\n    tag_4:\n      callvalue\n      dup1\n      iszero\n      tag_15\n      jumpi\n      0x00\n      dup1\n      revert\n    tag_15:\n      pop\n      tag_16\n      0x04\n      dup1\n      calldatasize\n      sub\n      dup2\n      add\n      swap1\n      tag_17\n      swap2\n      swap1\n      tag_18\n      jump\t// in\n    tag_17:\n      tag_19\n      jump\t// in\n    tag_16:\n      mload(0x40)\n      tag_20\n      swap2\n      swap1\n      tag_11\n      jump\t// in\n    tag_20:\n      mload(0x40)\n      dup1\n      swap2\n      sub\n      swap1\n      return\n        /* \"contracts/FundMe.sol\":375:679  function fund() public payable ... */\n    tag_5:\n      tag_21\n      tag_22\n      jump\t// in\n    tag_21:\n      stop\n        /* \"contracts/FundMe.sol\":280:304  address[] public funders */\n    tag_6:\n      callvalue\n      dup1\n      iszero\n      tag_23\n      jumpi\n      0x00\n      dup1\n      revert\n    tag_23:\n      pop\n      tag_24\n      0x04\n      dup1\n      calldatasize\n      sub\n      dup2\n      add\n      swap1\n      tag_25\n      swap2\n      swap1\n      tag_26\n      jump\t// in\n    tag_25:\n      tag_27\n      jump\t// in\n    tag_24:\n      mload(0x40)\n      tag_28\n      swap2\n      swap1\n      tag_29\n      jump\t// in\n    tag_28:\n      mload(0x40)\n      dup1\n      swap2\n      sub\n      swap1\n      return\n        /* \"contracts/FundMe.sol\":239:273  uint256 public minimumUSD=50 *1e18 */\n    tag_9:\n      sload(0x00)\n      dup2\n      jump\t// out\n        /* \"contracts/FundMe.sol\":685:1080  function withdraw() public {... */\n    tag_14:\n        /* \"contracts/FundMe.sol\":727:746  uint256 funderIndex */\n      0x00\n        /* \"contracts/FundMe.sol\":723:915  for(uint256 funderIndex = 0; funderIndex < funders.length; funderIndex++)... */\n    tag_31:\n        /* \"contracts/FundMe.sol\":766:773  funders */\n      0x01\n        /* \"contracts/FundMe.sol\":766:780  funders.length */\n      dup1\n      sload\n      swap1\n      pop\n        /* \"contracts/FundMe.sol\":752:763  funderIndex */\n      dup2\n        /* \"contracts/FundMe.sol\":752:780  funderIndex < funders.length */\n      lt\n        /* \"contracts/FundMe.sol\":723:915  for(uint256 funderIndex = 0; funderIndex < funders.length; funderIndex++)... */\n      iszero\n      tag_32\n      jumpi\n        /* \"contracts/FundMe.sol\":821:835  address funder */\n      0x00\n        /* \"contracts/FundMe.sol\":837:844  funders */\n      0x01\n        /* \"contracts/FundMe.sol\":845:856  funderIndex */\n      dup3\n        /* \"contracts/FundMe.sol\":837:857  funders[funderIndex] */\n      dup2\n      sload\n      dup2\n      lt\n      tag_34\n      jumpi\n      tag_35\n      tag_36\n      jump\t// in\n    tag_35:\n    tag_34:\n      swap1\n      0x00\n      mstore\n      keccak256(0x00, 0x20)\n      add\n      0x00\n      swap1\n      sload\n      swap1\n      0x0100\n      exp\n      swap1\n      div\n      0xffffffffffffffffffffffffffffffffffffffff\n      and\n        /* \"contracts/FundMe.sol\":821:857  address funder =funders[funderIndex] */\n      swap1\n      pop\n        /* \"contracts/FundMe.sol\":902:903  0 */\n      0x00\n        /* \"contracts/FundMe.sol\":872:893  addressToAmountFunded */\n      0x02\n        /* \"contracts/FundMe.sol\":872:901  addressToAmountFunded[funder] */\n      0x00\n        /* \"contracts/FundMe.sol\":894:900  funder */\n      dup4\n        /* \"contracts/FundMe.sol\":872:901  addressToAmountFunded[funder] */\n      0xffffffffffffffffffffffffffffffffffffffff\n      and\n      0xffffffffffffffffffffffffffffffffffffffff\n      and\n      dup2\n      mstore\n      0x20\n      add\n      swap1\n      dup2\n      mstore\n      0x20\n      add\n      0x00\n      keccak256\n        /* \"contracts/FundMe.sol\":872:903  addressToAmountFunded[funder]=0 */\n      dup2\n      swap1\n      sstore\n      pop\n        /* \"contracts/FundMe.sol\":806:915  {... */\n      pop\n        /* \"contracts/FundMe.sol\":782:795  funderIndex++ */\n      dup1\n      dup1\n      tag_38\n      swap1\n      tag_39\n      jump\t// in\n    tag_38:\n      swap2\n      pop\n      pop\n        /* \"contracts/FundMe.sol\":723:915  for(uint256 funderIndex = 0; funderIndex < funders.length; funderIndex++)... */\n      jump(tag_31)\n    tag_32:\n      pop\n        /* \"contracts/FundMe.sol\":971:972  0 */\n      0x00\n        /* \"contracts/FundMe.sol\":957:973  new address[](0) */\n      0xffffffffffffffff\n      dup2\n      gt\n      iszero\n      tag_40\n      jumpi\n      tag_41\n      tag_42\n      jump\t// in\n    tag_41:\n    tag_40:\n      mload(0x40)\n      swap1\n      dup1\n      dup3\n      mstore\n      dup1\n      0x20\n      mul\n      0x20\n      add\n      dup3\n      add\n      0x40\n      mstore\n      dup1\n      iszero\n      tag_43\n      jumpi\n      dup2\n      0x20\n      add\n      0x20\n      dup3\n      mul\n      dup1\n      calldatasize\n      dup4\n      calldatacopy\n      dup1\n      dup3\n      add\n      swap2\n      pop\n      pop\n      swap1\n      pop\n    tag_43:\n      pop\n        /* \"contracts/FundMe.sol\":948:955  funders */\n      0x01\n        /* \"contracts/FundMe.sol\":948:973  funders =new address[](0) */\n      swap1\n      dup1\n      mload\n      swap1\n      0x20\n      add\n      swap1\n      tag_44\n      swap3\n      swap2\n      swap1\n      tag_45\n      jump\t// in\n    tag_44:\n      pop\n        /* \"contracts/FundMe.sol\":685:1080  function withdraw() public {... */\n      jump\t// out\n        /* \"contracts/FundMe.sol\":311:366  mapping (address=>uint256) public addressToAmountFunded */\n    tag_19:\n      mstore(0x20, 0x02)\n      dup1\n      0x00\n      mstore\n      keccak256(0x00, 0x40)\n      0x00\n      swap2\n      pop\n      swap1\n      pop\n      sload\n      dup2\n      jump\t// out\n        /* \"contracts/FundMe.sol\":375:679  function fund() public payable ... */\n    tag_22:\n        /* \"contracts/FundMe.sol\":537:547  minimumUSD */\n      sload(0x00)\n        /* \"contracts/FundMe.sol\":505:534  msg.value.getConversionRate() */\n      tag_47\n        /* \"contracts/FundMe.sol\":505:514  msg.value */\n      callvalue\n        /* \"contracts/FundMe.sol\":505:532  msg.value.getConversionRate */\n      tag_48\n        /* \"contracts/FundMe.sol\":505:534  msg.value.getConversionRate() */\n      jump\t// in\n    tag_47:\n        /* \"contracts/FundMe.sol\":505:547  msg.value.getConversionRate()>= minimumUSD */\n      lt\n      iszero\n        /* \"contracts/FundMe.sol\":497:566  require(msg.value.getConversionRate()>= minimumUSD,\"Not enough fund\") */\n      tag_49\n      jumpi\n      mload(0x40)\n      0x08c379a000000000000000000000000000000000000000000000000000000000\n      dup2\n      mstore\n      0x04\n      add\n      tag_50\n      swap1\n      tag_51\n      jump\t// in\n    tag_50:\n      mload(0x40)\n      dup1\n      swap2\n      sub\n      swap1\n      revert\n    tag_49:\n        /* \"contracts/FundMe.sol\":593:600  funders */\n      0x01\n        /* \"contracts/FundMe.sol\":606:616  msg.sender */\n      caller\n        /* \"contracts/FundMe.sol\":593:617  funders.push(msg.sender) */\n      swap1\n      dup1\n      0x01\n      dup2\n      sload\n      add\n      dup1\n      dup3\n      sstore\n      dup1\n      swap2\n      pop\n      pop\n      0x01\n      swap1\n      sub\n      swap1\n      0x00\n      mstore\n      keccak256(0x00, 0x20)\n      add\n      0x00\n      swap1\n      swap2\n      swap1\n      swap2\n      swap1\n      swap2\n      0x0100\n      exp\n      dup2\n      sload\n      dup2\n      0xffffffffffffffffffffffffffffffffffffffff\n      mul\n      not\n      and\n      swap1\n      dup4\n      0xffffffffffffffffffffffffffffffffffffffff\n      and\n      mul\n      or\n      swap1\n      sstore\n      pop\n        /* \"contracts/FundMe.sol\":662:671  msg.value */\n      callvalue\n        /* \"contracts/FundMe.sol\":628:649  addressToAmountFunded */\n      0x02\n        /* \"contracts/FundMe.sol\":628:661  addressToAmountFunded[msg.sender] */\n      0x00\n        /* \"contracts/FundMe.sol\":650:660  msg.sender */\n      caller\n        /* \"contracts/FundMe.sol\":628:661  addressToAmountFunded[msg.sender] */\n      0xffffffffffffffffffffffffffffffffffffffff\n      and\n      0xffffffffffffffffffffffffffffffffffffffff\n      and\n      dup2\n      mstore\n      0x20\n      add\n      swap1\n      dup2\n      mstore\n      0x20\n      add\n      0x00\n      keccak256\n        /* \"contracts/FundMe.sol\":628:671  addressToAmountFunded[msg.sender]=msg.value */\n      dup2\n      swap1\n      sstore\n      pop\n        /* \"contracts/FundMe.sol\":375:679  function fund() public payable ... */\n      jump\t// out\n        /* \"contracts/FundMe.sol\":280:304  address[] public funders */\n    tag_27:\n      0x01\n      dup2\n      dup2\n      sload\n      dup2\n      lt\n      tag_53\n      jumpi\n      0x00\n      dup1\n      revert\n    tag_53:\n      swap1\n      0x00\n      mstore\n      keccak256(0x00, 0x20)\n      add\n      0x00\n      swap2\n      pop\n      sload\n      swap1\n      0x0100\n      exp\n      swap1\n      div\n      0xffffffffffffffffffffffffffffffffffffffff\n      and\n      dup2\n      jump\t// out\n        /* \"contracts/PriceConverter.sol\":612:836  function getConversionRate(uint ethAmount) internal  view returns ( uint256)... */\n    tag_48:\n        /* \"contracts/PriceConverter.sol\":680:687  uint256 */\n      0x00\n        /* \"contracts/PriceConverter.sol\":705:721  uint256 ethPrice */\n      dup1\n        /* \"contracts/PriceConverter.sol\":724:734  getPrice() */\n      tag_56\n        /* \"contracts/PriceConverter.sol\":724:732  getPrice */\n      tag_57\n        /* \"contracts/PriceConverter.sol\":724:734  getPrice() */\n      jump\t// in\n    tag_56:\n        /* \"contracts/PriceConverter.sol\":705:734  uint256 ethPrice = getPrice() */\n      swap1\n      pop\n        /* \"contracts/PriceConverter.sol\":745:767  uint256 ethAmountInUsd */\n      0x00\n        /* \"contracts/PriceConverter.sol\":792:796  1e18 */\n      0x0de0b6b3a7640000\n        /* \"contracts/PriceConverter.sol\":781:790  ethAmount */\n      dup5\n        /* \"contracts/PriceConverter.sol\":770:778  ethPrice */\n      dup4\n        /* \"contracts/PriceConverter.sol\":770:790  ethPrice * ethAmount */\n      tag_58\n      swap2\n      swap1\n      tag_59\n      jump\t// in\n    tag_58:\n        /* \"contracts/PriceConverter.sol\":769:796  (ethPrice * ethAmount)/1e18 */\n      tag_60\n      swap2\n      swap1\n      tag_61\n      jump\t// in\n    tag_60:\n        /* \"contracts/PriceConverter.sol\":745:796  uint256 ethAmountInUsd= (ethPrice * ethAmount)/1e18 */\n      swap1\n      pop\n        /* \"contracts/PriceConverter.sol\":814:828  ethAmountInUsd */\n      dup1\n        /* \"contracts/PriceConverter.sol\":807:828  return ethAmountInUsd */\n      swap3\n      pop\n      pop\n      pop\n        /* \"contracts/PriceConverter.sol\":612:836  function getConversionRate(uint ethAmount) internal  view returns ( uint256)... */\n      swap2\n      swap1\n      pop\n      jump\t// out\n        /* \"contracts/PriceConverter.sol\":239:606  function getPrice() internal view returns(uint256){... */\n    tag_57:\n        /* \"contracts/PriceConverter.sol\":281:288  uint256 */\n      0x00\n        /* \"contracts/PriceConverter.sol\":377:408  AggregatorV3Interface priceFeed */\n      dup1\n        /* \"contracts/PriceConverter.sol\":431:473  0x694AA1769357215DE4FAC081bf1f309aDC325306 */\n      0x694aa1769357215de4fac081bf1f309adc325306\n        /* \"contracts/PriceConverter.sol\":377:474  AggregatorV3Interface priceFeed=AggregatorV3Interface(0x694AA1769357215DE4FAC081bf1f309aDC325306) */\n      swap1\n      pop\n        /* \"contracts/PriceConverter.sol\":487:496  int price */\n      0x00\n        /* \"contracts/PriceConverter.sol\":501:510  priceFeed */\n      dup2\n        /* \"contracts/PriceConverter.sol\":501:526  priceFeed.latestRoundData */\n      0xffffffffffffffffffffffffffffffffffffffff\n      and\n      0xfeaf968c\n        /* \"contracts/PriceConverter.sol\":501:528  priceFeed.latestRoundData() */\n      mload(0x40)\n      dup2\n      0xffffffff\n      and\n      0xe0\n      shl\n      dup2\n      mstore\n      0x04\n      add\n      0xa0\n      mload(0x40)\n      dup1\n      dup4\n      sub\n      dup2\n      dup7\n      gas\n      staticcall\n      iszero\n      dup1\n      iszero\n      tag_64\n      jumpi\n      returndatasize\n      0x00\n      dup1\n      returndatacopy\n      revert(0x00, returndatasize)\n    tag_64:\n      pop\n      pop\n      pop\n      pop\n      mload(0x40)\n      returndatasize\n      not(0x1f)\n      0x1f\n      dup3\n      add\n      and\n      dup3\n      add\n      dup1\n      0x40\n      mstore\n      pop\n      dup2\n      add\n      swap1\n      tag_65\n      swap2\n      swap1\n      tag_66\n      jump\t// in\n    tag_65:\n        /* \"contracts/PriceConverter.sol\":485:528  (,int price,,,)=priceFeed.latestRoundData() */\n      pop\n      pop\n      pop\n      swap2\n      pop\n      pop\n        /* \"contracts/PriceConverter.sol\":593:597  1e10 */\n      0x02540be400\n        /* \"contracts/PriceConverter.sol\":585:590  price */\n      dup2\n        /* \"contracts/PriceConverter.sol\":585:597  price * 1e10 */\n      tag_67\n      swap2\n      swap1\n      tag_68\n      jump\t// in\n    tag_67:\n        /* \"contracts/PriceConverter.sol\":570:598  return uint256(price * 1e10) */\n      swap3\n      pop\n      pop\n      pop\n        /* \"contracts/PriceConverter.sol\":239:606  function getPrice() internal view returns(uint256){... */\n      swap1\n      jump\t// out\n    tag_45:\n      dup3\n      dup1\n      sload\n      dup3\n      dup3\n      sstore\n      swap1\n      0x00\n      mstore\n      keccak256(0x00, 0x20)\n      swap1\n      dup2\n      add\n      swap3\n      dup3\n      iszero\n      tag_69\n      jumpi\n      swap2\n      0x20\n      mul\n      dup3\n      add\n    tag_70:\n      dup3\n      dup2\n      gt\n      iszero\n      tag_71\n      jumpi\n      dup3\n      mload\n      dup3\n      exp(0x0100, 0x00)\n      dup2\n      sload\n      dup2\n      0xffffffffffffffffffffffffffffffffffffffff\n      mul\n      not\n      and\n      swap1\n      dup4\n      0xffffffffffffffffffffffffffffffffffffffff\n      and\n      mul\n      or\n      swap1\n      sstore\n      pop\n      swap2\n      0x20\n      add\n      swap2\n      swap1\n      0x01\n      add\n      swap1\n      jump(tag_70)\n    tag_71:\n    tag_69:\n      pop\n      swap1\n      pop\n      tag_72\n      swap2\n      swap1\n      tag_73\n      jump\t// in\n    tag_72:\n      pop\n      swap1\n      jump\t// out\n    tag_73:\n    tag_74:\n      dup1\n      dup3\n      gt\n      iszero\n      tag_75\n      jumpi\n      0x00\n      dup2\n      0x00\n      swap1\n      sstore\n      pop\n      0x01\n      add\n      jump(tag_74)\n    tag_75:\n      pop\n      swap1\n      jump\t// out\n        /* \"#utility.yul\":7:84   */\n    tag_76:\n        /* \"#utility.yul\":44:51   */\n      0x00\n        /* \"#utility.yul\":73:78   */\n      dup2\n        /* \"#utility.yul\":62:78   */\n      swap1\n      pop\n        /* \"#utility.yul\":7:84   */\n      swap2\n      swap1\n      pop\n      jump\t// out\n        /* \"#utility.yul\":90:208   */\n    tag_77:\n        /* \"#utility.yul\":177:201   */\n      tag_103\n        /* \"#utility.yul\":195:200   */\n      dup2\n        /* \"#utility.yul\":177:201   */\n      tag_76\n      jump\t// in\n    tag_103:\n        /* \"#utility.yul\":172:175   */\n      dup3\n        /* \"#utility.yul\":165:202   */\n      mstore\n        /* \"#utility.yul\":90:208   */\n      pop\n      pop\n      jump\t// out\n        /* \"#utility.yul\":214:436   */\n    tag_11:\n        /* \"#utility.yul\":307:311   */\n      0x00\n        /* \"#utility.yul\":345:347   */\n      0x20\n        /* \"#utility.yul\":334:343   */\n      dup3\n        /* \"#utility.yul\":330:348   */\n      add\n        /* \"#utility.yul\":322:348   */\n      swap1\n      pop\n        /* \"#utility.yul\":358:429   */\n      tag_105\n        /* \"#utility.yul\":426:427   */\n      0x00\n        /* \"#utility.yul\":415:424   */\n      dup4\n        /* \"#utility.yul\":411:428   */\n      add\n        /* \"#utility.yul\":402:408   */\n      dup5\n        /* \"#utility.yul\":358:429   */\n      tag_77\n      jump\t// in\n    tag_105:\n        /* \"#utility.yul\":214:436   */\n      swap3\n      swap2\n      pop\n      pop\n      jump\t// out\n        /* \"#utility.yul\":523:640   */\n    tag_79:\n        /* \"#utility.yul\":632:633   */\n      0x00\n        /* \"#utility.yul\":629:630   */\n      dup1\n        /* \"#utility.yul\":622:634   */\n      revert\n        /* \"#utility.yul\":769:895   */\n    tag_81:\n        /* \"#utility.yul\":806:813   */\n      0x00\n        /* \"#utility.yul\":846:888   */\n      0xffffffffffffffffffffffffffffffffffffffff\n        /* \"#utility.yul\":839:844   */\n      dup3\n        /* \"#utility.yul\":835:889   */\n      and\n        /* \"#utility.yul\":824:889   */\n      swap1\n      pop\n        /* \"#utility.yul\":769:895   */\n      swap2\n      swap1\n      pop\n      jump\t// out\n        /* \"#utility.yul\":901:997   */\n    tag_82:\n        /* \"#utility.yul\":938:945   */\n      0x00\n        /* \"#utility.yul\":967:991   */\n      tag_111\n        /* \"#utility.yul\":985:990   */\n      dup3\n        /* \"#utility.yul\":967:991   */\n      tag_81\n      jump\t// in\n    tag_111:\n        /* \"#utility.yul\":956:991   */\n      swap1\n      pop\n        /* \"#utility.yul\":901:997   */\n      swap2\n      swap1\n      pop\n      jump\t// out\n        /* \"#utility.yul\":1003:1125   */\n    tag_83:\n        /* \"#utility.yul\":1076:1100   */\n      tag_113\n        /* \"#utility.yul\":1094:1099   */\n      dup2\n        /* \"#utility.yul\":1076:1100   */\n      tag_82\n      jump\t// in\n    tag_113:\n        /* \"#utility.yul\":1069:1074   */\n      dup2\n        /* \"#utility.yul\":1066:1101   */\n      eq\n        /* \"#utility.yul\":1056:1119   */\n      tag_114\n      jumpi\n        /* \"#utility.yul\":1115:1116   */\n      0x00\n        /* \"#utility.yul\":1112:1113   */\n      dup1\n        /* \"#utility.yul\":1105:1117   */\n      revert\n        /* \"#utility.yul\":1056:1119   */\n    tag_114:\n        /* \"#utility.yul\":1003:1125   */\n      pop\n      jump\t// out\n        /* \"#utility.yul\":1131:1270   */\n    tag_84:\n        /* \"#utility.yul\":1177:1182   */\n      0x00\n        /* \"#utility.yul\":1215:1221   */\n      dup2\n        /* \"#utility.yul\":1202:1222   */\n      calldataload\n        /* \"#utility.yul\":1193:1222   */\n      swap1\n      pop\n        /* \"#utility.yul\":1231:1264   */\n      tag_116\n        /* \"#utility.yul\":1258:1263   */\n      dup2\n        /* \"#utility.yul\":1231:1264   */\n      tag_83\n      jump\t// in\n    tag_116:\n        /* \"#utility.yul\":1131:1270   */\n      swap3\n      swap2\n      pop\n      pop\n      jump\t// out\n        /* \"#utility.yul\":1276:1605   */\n    tag_18:\n        /* \"#utility.yul\":1335:1341   */\n      0x00\n        /* \"#utility.yul\":1384:1386   */\n      0x20\n        /* \"#utility.yul\":1372:1381   */\n      dup3\n        /* \"#utility.yul\":1363:1370   */\n      dup5\n        /* \"#utility.yul\":1359:1382   */\n      sub\n        /* \"#utility.yul\":1355:1387   */\n      slt\n        /* \"#utility.yul\":1352:1471   */\n      iszero\n      tag_118\n      jumpi\n        /* \"#utility.yul\":1390:1469   */\n      tag_119\n      tag_79\n      jump\t// in\n    tag_119:\n        /* \"#utility.yul\":1352:1471   */\n    tag_118:\n        /* \"#utility.yul\":1510:1511   */\n      0x00\n        /* \"#utility.yul\":1535:1588   */\n      tag_120\n        /* \"#utility.yul\":1580:1587   */\n      dup5\n        /* \"#utility.yul\":1571:1577   */\n      dup3\n        /* \"#utility.yul\":1560:1569   */\n      dup6\n        /* \"#utility.yul\":1556:1578   */\n      add\n        /* \"#utility.yul\":1535:1588   */\n      tag_84\n      jump\t// in\n    tag_120:\n        /* \"#utility.yul\":1525:1588   */\n      swap2\n      pop\n        /* \"#utility.yul\":1481:1598   */\n      pop\n        /* \"#utility.yul\":1276:1605   */\n      swap3\n      swap2\n      pop\n      pop\n      jump\t// out\n        /* \"#utility.yul\":1611:1733   */\n    tag_85:\n        /* \"#utility.yul\":1684:1708   */\n      tag_122\n        /* \"#utility.yul\":1702:1707   */\n      dup2\n        /* \"#utility.yul\":1684:1708   */\n      tag_76\n      jump\t// in\n    tag_122:\n        /* \"#utility.yul\":1677:1682   */\n      dup2\n        /* \"#utility.yul\":1674:1709   */\n      eq\n        /* \"#utility.yul\":1664:1727   */\n      tag_123\n      jumpi\n        /* \"#utility.yul\":1723:1724   */\n      0x00\n        /* \"#utility.yul\":1720:1721   */\n      dup1\n        /* \"#utility.yul\":1713:1725   */\n      revert\n        /* \"#utility.yul\":1664:1727   */\n    tag_123:\n        /* \"#utility.yul\":1611:1733   */\n      pop\n      jump\t// out\n        /* \"#utility.yul\":1739:1878   */\n    tag_86:\n        /* \"#utility.yul\":1785:1790   */\n      0x00\n        /* \"#utility.yul\":1823:1829   */\n      dup2\n        /* \"#utility.yul\":1810:1830   */\n      calldataload\n        /* \"#utility.yul\":1801:1830   */\n      swap1\n      pop\n        /* \"#utility.yul\":1839:1872   */\n      tag_125\n        /* \"#utility.yul\":1866:1871   */\n      dup2\n        /* \"#utility.yul\":1839:1872   */\n      tag_85\n      jump\t// in\n    tag_125:\n        /* \"#utility.yul\":1739:1878   */\n      swap3\n      swap2\n      pop\n      pop\n      jump\t// out\n        /* \"#utility.yul\":1884:2213   */\n    tag_26:\n        /* \"#utility.yul\":1943:1949   */\n      0x00\n        /* \"#utility.yul\":1992:1994   */\n      0x20\n        /* \"#utility.yul\":1980:1989   */\n      dup3\n        /* \"#utility.yul\":1971:1978   */\n      dup5\n        /* \"#utility.yul\":1967:1990   */\n      sub\n        /* \"#utility.yul\":1963:1995   */\n      slt\n        /* \"#utility.yul\":1960:2079   */\n      iszero\n      tag_127\n      jumpi\n        /* \"#utility.yul\":1998:2077   */\n      tag_128\n      tag_79\n      jump\t// in\n    tag_128:\n        /* \"#utility.yul\":1960:2079   */\n    tag_127:\n        /* \"#utility.yul\":2118:2119   */\n      0x00\n        /* \"#utility.yul\":2143:2196   */\n      tag_129\n        /* \"#utility.yul\":2188:2195   */\n      dup5\n        /* \"#utility.yul\":2179:2185   */\n      dup3\n        /* \"#utility.yul\":2168:2177   */\n      dup6\n        /* \"#utility.yul\":2164:2186   */\n      add\n        /* \"#utility.yul\":2143:2196   */\n      tag_86\n      jump\t// in\n    tag_129:\n        /* \"#utility.yul\":2133:2196   */\n      swap2\n      pop\n        /* \"#utility.yul\":2089:2206   */\n      pop\n        /* \"#utility.yul\":1884:2213   */\n      swap3\n      swap2\n      pop\n      pop\n      jump\t// out\n        /* \"#utility.yul\":2219:2337   */\n    tag_87:\n        /* \"#utility.yul\":2306:2330   */\n      tag_131\n        /* \"#utility.yul\":2324:2329   */\n      dup2\n        /* \"#utility.yul\":2306:2330   */\n      tag_82\n      jump\t// in\n    tag_131:\n        /* \"#utility.yul\":2301:2304   */\n      dup3\n        /* \"#utility.yul\":2294:2331   */\n      mstore\n        /* \"#utility.yul\":2219:2337   */\n      pop\n      pop\n      jump\t// out\n        /* \"#utility.yul\":2343:2565   */\n    tag_29:\n        /* \"#utility.yul\":2436:2440   */\n      0x00\n        /* \"#utility.yul\":2474:2476   */\n      0x20\n        /* \"#utility.yul\":2463:2472   */\n      dup3\n        /* \"#utility.yul\":2459:2477   */\n      add\n        /* \"#utility.yul\":2451:2477   */\n      swap1\n      pop\n        /* \"#utility.yul\":2487:2558   */\n      tag_133\n        /* \"#utility.yul\":2555:2556   */\n      0x00\n        /* \"#utility.yul\":2544:2553   */\n      dup4\n        /* \"#utility.yul\":2540:2557   */\n      add\n        /* \"#utility.yul\":2531:2537   */\n      dup5\n        /* \"#utility.yul\":2487:2558   */\n      tag_87\n      jump\t// in\n    tag_133:\n        /* \"#utility.yul\":2343:2565   */\n      swap3\n      swap2\n      pop\n      pop\n      jump\t// out\n        /* \"#utility.yul\":2571:2751   */\n    tag_36:\n        /* \"#utility.yul\":2619:2696   */\n      0x4e487b7100000000000000000000000000000000000000000000000000000000\n        /* \"#utility.yul\":2616:2617   */\n      0x00\n        /* \"#utility.yul\":2609:2697   */\n      mstore\n        /* \"#utility.yul\":2716:2720   */\n      0x32\n        /* \"#utility.yul\":2713:2714   */\n      0x04\n        /* \"#utility.yul\":2706:2721   */\n      mstore\n        /* \"#utility.yul\":2740:2744   */\n      0x24\n        /* \"#utility.yul\":2737:2738   */\n      0x00\n        /* \"#utility.yul\":2730:2745   */\n      revert\n        /* \"#utility.yul\":2757:2937   */\n    tag_88:\n        /* \"#utility.yul\":2805:2882   */\n      0x4e487b7100000000000000000000000000000000000000000000000000000000\n        /* \"#utility.yul\":2802:2803   */\n      0x00\n        /* \"#utility.yul\":2795:2883   */\n      mstore\n        /* \"#utility.yul\":2902:2906   */\n      0x11\n        /* \"#utility.yul\":2899:2900   */\n      0x04\n        /* \"#utility.yul\":2892:2907   */\n      mstore\n        /* \"#utility.yul\":2926:2930   */\n      0x24\n        /* \"#utility.yul\":2923:2924   */\n      0x00\n        /* \"#utility.yul\":2916:2931   */\n      revert\n        /* \"#utility.yul\":2943:3176   */\n    tag_39:\n        /* \"#utility.yul\":2982:2985   */\n      0x00\n        /* \"#utility.yul\":3005:3029   */\n      tag_137\n        /* \"#utility.yul\":3023:3028   */\n      dup3\n        /* \"#utility.yul\":3005:3029   */\n      tag_76\n      jump\t// in\n    tag_137:\n        /* \"#utility.yul\":2996:3029   */\n      swap2\n      pop\n        /* \"#utility.yul\":3051:3117   */\n      0xffffffffffffffffffffffffffffffffffffffffffffffffffffffffffffffff\n        /* \"#utility.yul\":3044:3049   */\n      dup3\n        /* \"#utility.yul\":3041:3118   */\n      sub\n        /* \"#utility.yul\":3038:3141   */\n      tag_138\n      jumpi\n        /* \"#utility.yul\":3121:3139   */\n      tag_139\n      tag_88\n      jump\t// in\n    tag_139:\n        /* \"#utility.yul\":3038:3141   */\n    tag_138:\n        /* \"#utility.yul\":3168:3169   */\n      0x01\n        /* \"#utility.yul\":3161:3166   */\n      dup3\n        /* \"#utility.yul\":3157:3170   */\n      add\n        /* \"#utility.yul\":3150:3170   */\n      swap1\n      pop\n        /* \"#utility.yul\":2943:3176   */\n      swap2\n      swap1\n      pop\n      jump\t// out\n        /* \"#utility.yul\":3182:3362   */\n    tag_42:\n        /* \"#utility.yul\":3230:3307   */\n      0x4e487b7100000000000000000000000000000000000000000000000000000000\n        /* \"#utility.yul\":3227:3228   */\n      0x00\n        /* \"#utility.yul\":3220:3308   */\n      mstore\n        /* \"#utility.yul\":3327:3331   */\n      0x41\n        /* \"#utility.yul\":3324:3325   */\n      0x04\n        /* \"#utility.yul\":3317:3332   */\n      mstore\n        /* \"#utility.yul\":3351:3355   */\n      0x24\n        /* \"#utility.yul\":3348:3349   */\n      0x00\n        /* \"#utility.yul\":3341:3356   */\n      revert\n        /* \"#utility.yul\":3368:3537   */\n    tag_89:\n        /* \"#utility.yul\":3452:3463   */\n      0x00\n        /* \"#utility.yul\":3486:3492   */\n      dup3\n        /* \"#utility.yul\":3481:3484   */\n      dup3\n        /* \"#utility.yul\":3474:3493   */\n      mstore\n        /* \"#utility.yul\":3526:3530   */\n      0x20\n        /* \"#utility.yul\":3521:3524   */\n      dup3\n        /* \"#utility.yul\":3517:3531   */\n      add\n        /* \"#utility.yul\":3502:3531   */\n      swap1\n      pop\n        /* \"#utility.yul\":3368:3537   */\n      swap3\n      swap2\n      pop\n      pop\n      jump\t// out\n        /* \"#utility.yul\":3543:3708   */\n    tag_90:\n        /* \"#utility.yul\":3683:3700   */\n      0x4e6f7420656e6f7567682066756e640000000000000000000000000000000000\n        /* \"#utility.yul\":3679:3680   */\n      0x00\n        /* \"#utility.yul\":3671:3677   */\n      dup3\n        /* \"#utility.yul\":3667:3681   */\n      add\n        /* \"#utility.yul\":3660:3701   */\n      mstore\n        /* \"#utility.yul\":3543:3708   */\n      pop\n      jump\t// out\n        /* \"#utility.yul\":3714:4080   */\n    tag_91:\n        /* \"#utility.yul\":3856:3859   */\n      0x00\n        /* \"#utility.yul\":3877:3944   */\n      tag_144\n        /* \"#utility.yul\":3941:3943   */\n      0x0f\n        /* \"#utility.yul\":3936:3939   */\n      dup4\n        /* \"#utility.yul\":3877:3944   */\n      tag_89\n      jump\t// in\n    tag_144:\n        /* \"#utility.yul\":3870:3944   */\n      swap2\n      pop\n        /* \"#utility.yul\":3953:4046   */\n      tag_145\n        /* \"#utility.yul\":4042:4045   */\n      dup3\n        /* \"#utility.yul\":3953:4046   */\n      tag_90\n      jump\t// in\n    tag_145:\n        /* \"#utility.yul\":4071:4073   */\n      0x20\n        /* \"#utility.yul\":4066:4069   */\n      dup3\n        /* \"#utility.yul\":4062:4074   */\n      add\n        /* \"#utility.yul\":4055:4074   */\n      swap1\n      pop\n        /* \"#utility.yul\":3714:4080   */\n      swap2\n      swap1\n      pop\n      jump\t// out\n        /* \"#utility.yul\":4086:4505   */\n    tag_51:\n        /* \"#utility.yul\":4252:4256   */\n      0x00\n        /* \"#utility.yul\":4290:4292   */\n      0x20\n        /* \"#utility.yul\":4279:4288   */\n      dup3\n        /* \"#utility.yul\":4275:4293   */\n      add\n        /* \"#utility.yul\":4267:4293   */\n      swap1\n      pop\n        /* \"#utility.yul\":4339:4348   */\n      dup2\n        /* \"#utility.yul\":4333:4337   */\n      dup2\n        /* \"#utility.yul\":4329:4349   */\n      sub\n        /* \"#utility.yul\":4325:4326   */\n      0x00\n        /* \"#utility.yul\":4314:4323   */\n      dup4\n        /* \"#utility.yul\":4310:4327   */\n      add\n        /* \"#utility.yul\":4303:4350   */\n      mstore\n        /* \"#utility.yul\":4367:4498   */\n      tag_147\n        /* \"#utility.yul\":4493:4497   */\n      dup2\n        /* \"#utility.yul\":4367:4498   */\n      tag_91\n      jump\t// in\n    tag_147:\n        /* \"#utility.yul\":4359:4498   */\n      swap1\n      pop\n        /* \"#utility.yul\":4086:4505   */\n      swap2\n      swap1\n      pop\n      jump\t// out\n        /* \"#utility.yul\":4511:4921   */\n    tag_59:\n        /* \"#utility.yul\":4551:4558   */\n      0x00\n        /* \"#utility.yul\":4574:4594   */\n      tag_149\n        /* \"#utility.yul\":4592:4593   */\n      dup3\n        /* \"#utility.yul\":4574:4594   */\n      tag_76\n      jump\t// in\n    tag_149:\n        /* \"#utility.yul\":4569:4594   */\n      swap2\n      pop\n        /* \"#utility.yul\":4608:4628   */\n      tag_150\n        /* \"#utility.yul\":4626:4627   */\n      dup4\n        /* \"#utility.yul\":4608:4628   */\n      tag_76\n      jump\t// in\n    tag_150:\n        /* \"#utility.yul\":4603:4628   */\n      swap3\n      pop\n        /* \"#utility.yul\":4663:4664   */\n      dup3\n        /* \"#utility.yul\":4660:4661   */\n      dup3\n        /* \"#utility.yul\":4656:4665   */\n      mul\n        /* \"#utility.yul\":4685:4715   */\n      tag_151\n        /* \"#utility.yul\":4703:4714   */\n      dup2\n        /* \"#utility.yul\":4685:4715   */\n      tag_76\n      jump\t// in\n    tag_151:\n        /* \"#utility.yul\":4674:4715   */\n      swap2\n      pop\n        /* \"#utility.yul\":4864:4865   */\n      dup3\n        /* \"#utility.yul\":4855:4862   */\n      dup3\n        /* \"#utility.yul\":4851:4866   */\n      div\n        /* \"#utility.yul\":4848:4849   */\n      dup5\n        /* \"#utility.yul\":4845:4867   */\n      eq\n        /* \"#utility.yul\":4825:4826   */\n      dup4\n        /* \"#utility.yul\":4818:4827   */\n      iszero\n        /* \"#utility.yul\":4798:4881   */\n      or\n        /* \"#utility.yul\":4775:4914   */\n      tag_152\n      jumpi\n        /* \"#utility.yul\":4894:4912   */\n      tag_153\n      tag_88\n      jump\t// in\n    tag_153:\n        /* \"#utility.yul\":4775:4914   */\n    tag_152:\n        /* \"#utility.yul\":4559:4921   */\n      pop\n        /* \"#utility.yul\":4511:4921   */\n      swap3\n      swap2\n      pop\n      pop\n      jump\t// out\n        /* \"#utility.yul\":4927:5107   */\n    tag_92:\n        /* \"#utility.yul\":4975:5052   */\n      0x4e487b7100000000000000000000000000000000000000000000000000000000\n        /* \"#utility.yul\":4972:4973   */\n      0x00\n        /* \"#utility.yul\":4965:5053   */\n      mstore\n        /* \"#utility.yul\":5072:5076   */\n      0x12\n        /* \"#utility.yul\":5069:5070   */\n      0x04\n        /* \"#utility.yul\":5062:5077   */\n      mstore\n        /* \"#utility.yul\":5096:5100   */\n      0x24\n        /* \"#utility.yul\":5093:5094   */\n      0x00\n        /* \"#utility.yul\":5086:5101   */\n      revert\n        /* \"#utility.yul\":5113:5298   */\n    tag_61:\n        /* \"#utility.yul\":5153:5154   */\n      0x00\n        /* \"#utility.yul\":5170:5190   */\n      tag_156\n        /* \"#utility.yul\":5188:5189   */\n      dup3\n        /* \"#utility.yul\":5170:5190   */\n      tag_76\n      jump\t// in\n    tag_156:\n        /* \"#utility.yul\":5165:5190   */\n      swap2\n      pop\n        /* \"#utility.yul\":5204:5224   */\n      tag_157\n        /* \"#utility.yul\":5222:5223   */\n      dup4\n        /* \"#utility.yul\":5204:5224   */\n      tag_76\n      jump\t// in\n    tag_157:\n        /* \"#utility.yul\":5199:5224   */\n      swap3\n      pop\n        /* \"#utility.yul\":5243:5244   */\n      dup3\n        /* \"#utility.yul\":5233:5268   */\n      tag_158\n      jumpi\n        /* \"#utility.yul\":5248:5266   */\n      tag_159\n      tag_92\n      jump\t// in\n    tag_159:\n        /* \"#utility.yul\":5233:5268   */\n    tag_158:\n        /* \"#utility.yul\":5290:5291   */\n      dup3\n        /* \"#utility.yul\":5287:5288   */\n      dup3\n        /* \"#utility.yul\":5283:5292   */\n      div\n        /* \"#utility.yul\":5278:5292   */\n      swap1\n      pop\n        /* \"#utility.yul\":5113:5298   */\n      swap3\n      swap2\n      pop\n      pop\n      jump\t// out\n        /* \"#utility.yul\":5304:5409   */\n    tag_93:\n        /* \"#utility.yul\":5340:5347   */\n      0x00\n        /* \"#utility.yul\":5380:5402   */\n      0xffffffffffffffffffff\n        /* \"#utility.yul\":5373:5378   */\n      dup3\n        /* \"#utility.yul\":5369:5403   */\n      and\n        /* \"#utility.yul\":5358:5403   */\n      swap1\n      pop\n        /* \"#utility.yul\":5304:5409   */\n      swap2\n      swap1\n      pop\n      jump\t// out\n        /* \"#utility.yul\":5415:5535   */\n    tag_94:\n        /* \"#utility.yul\":5487:5510   */\n      tag_162\n        /* \"#utility.yul\":5504:5509   */\n      dup2\n        /* \"#utility.yul\":5487:5510   */\n      tag_93\n      jump\t// in\n    tag_162:\n        /* \"#utility.yul\":5480:5485   */\n      dup2\n        /* \"#utility.yul\":5477:5511   */\n      eq\n        /* \"#utility.yul\":5467:5529   */\n      tag_163\n      jumpi\n        /* \"#utility.yul\":5525:5526   */\n      0x00\n        /* \"#utility.yul\":5522:5523   */\n      dup1\n        /* \"#utility.yul\":5515:5527   */\n      revert\n        /* \"#utility.yul\":5467:5529   */\n    tag_163:\n        /* \"#utility.yul\":5415:5535   */\n      pop\n      jump\t// out\n        /* \"#utility.yul\":5541:5682   */\n    tag_95:\n        /* \"#utility.yul\":5597:5602   */\n      0x00\n        /* \"#utility.yul\":5628:5634   */\n      dup2\n        /* \"#utility.yul\":5622:5635   */\n      mload\n        /* \"#utility.yul\":5613:5635   */\n      swap1\n      pop\n        /* \"#utility.yul\":5644:5676   */\n      tag_165\n        /* \"#utility.yul\":5670:5675   */\n      dup2\n        /* \"#utility.yul\":5644:5676   */\n      tag_94\n      jump\t// in\n    tag_165:\n        /* \"#utility.yul\":5541:5682   */\n      swap3\n      swap2\n      pop\n      pop\n      jump\t// out\n        /* \"#utility.yul\":5688:5764   */\n    tag_96:\n        /* \"#utility.yul\":5724:5731   */\n      0x00\n        /* \"#utility.yul\":5753:5758   */\n      dup2\n        /* \"#utility.yul\":5742:5758   */\n      swap1\n      pop\n        /* \"#utility.yul\":5688:5764   */\n      swap2\n      swap1\n      pop\n      jump\t// out\n        /* \"#utility.yul\":5770:5890   */\n    tag_97:\n        /* \"#utility.yul\":5842:5865   */\n      tag_168\n        /* \"#utility.yul\":5859:5864   */\n      dup2\n        /* \"#utility.yul\":5842:5865   */\n      tag_96\n      jump\t// in\n    tag_168:\n        /* \"#utility.yul\":5835:5840   */\n      dup2\n        /* \"#utility.yul\":5832:5866   */\n      eq\n        /* \"#utility.yul\":5822:5884   */\n      tag_169\n      jumpi\n        /* \"#utility.yul\":5880:5881   */\n      0x00\n        /* \"#utility.yul\":5877:5878   */\n      dup1\n        /* \"#utility.yul\":5870:5882   */\n      revert\n        /* \"#utility.yul\":5822:5884   */\n    tag_169:\n        /* \"#utility.yul\":5770:5890   */\n      pop\n      jump\t// out\n        /* \"#utility.yul\":5896:6037   */\n    tag_98:\n        /* \"#utility.yul\":5952:5957   */\n      0x00\n        /* \"#utility.yul\":5983:5989   */\n      dup2\n        /* \"#utility.yul\":5977:5990   */\n      mload\n        /* \"#utility.yul\":5968:5990   */\n      swap1\n      pop\n        /* \"#utility.yul\":5999:6031   */\n      tag_171\n        /* \"#utility.yul\":6025:6030   */\n      dup2\n        /* \"#utility.yul\":5999:6031   */\n      tag_97\n      jump\t// in\n    tag_171:\n        /* \"#utility.yul\":5896:6037   */\n      swap3\n      swap2\n      pop\n      pop\n      jump\t// out\n        /* \"#utility.yul\":6043:6186   */\n    tag_99:\n        /* \"#utility.yul\":6100:6105   */\n      0x00\n        /* \"#utility.yul\":6131:6137   */\n      dup2\n        /* \"#utility.yul\":6125:6138   */\n      mload\n        /* \"#utility.yul\":6116:6138   */\n      swap1\n      pop\n        /* \"#utility.yul\":6147:6180   */\n      tag_173\n        /* \"#utility.yul\":6174:6179   */\n      dup2\n        /* \"#utility.yul\":6147:6180   */\n      tag_85\n      jump\t// in\n    tag_173:\n        /* \"#utility.yul\":6043:6186   */\n      swap3\n      swap2\n      pop\n      pop\n      jump\t// out\n        /* \"#utility.yul\":6192:7163   */\n    tag_66:\n        /* \"#utility.yul\":6295:6301   */\n      0x00\n        /* \"#utility.yul\":6303:6309   */\n      dup1\n        /* \"#utility.yul\":6311:6317   */\n      0x00\n        /* \"#utility.yul\":6319:6325   */\n      dup1\n        /* \"#utility.yul\":6327:6333   */\n      0x00\n        /* \"#utility.yul\":6376:6379   */\n      0xa0\n        /* \"#utility.yul\":6364:6373   */\n      dup7\n        /* \"#utility.yul\":6355:6362   */\n      dup9\n        /* \"#utility.yul\":6351:6374   */\n      sub\n        /* \"#utility.yul\":6347:6380   */\n      slt\n        /* \"#utility.yul\":6344:6464   */\n      iszero\n      tag_175\n      jumpi\n        /* \"#utility.yul\":6383:6462   */\n      tag_176\n      tag_79\n      jump\t// in\n    tag_176:\n        /* \"#utility.yul\":6344:6464   */\n    tag_175:\n        /* \"#utility.yul\":6503:6504   */\n      0x00\n        /* \"#utility.yul\":6528:6591   */\n      tag_177\n        /* \"#utility.yul\":6583:6590   */\n      dup9\n        /* \"#utility.yul\":6574:6580   */\n      dup3\n        /* \"#utility.yul\":6563:6572   */\n      dup10\n        /* \"#utility.yul\":6559:6581   */\n      add\n        /* \"#utility.yul\":6528:6591   */\n      tag_95\n      jump\t// in\n    tag_177:\n        /* \"#utility.yul\":6518:6591   */\n      swap6\n      pop\n        /* \"#utility.yul\":6474:6601   */\n      pop\n        /* \"#utility.yul\":6640:6642   */\n      0x20\n        /* \"#utility.yul\":6666:6729   */\n      tag_178\n        /* \"#utility.yul\":6721:6728   */\n      dup9\n        /* \"#utility.yul\":6712:6718   */\n      dup3\n        /* \"#utility.yul\":6701:6710   */\n      dup10\n        /* \"#utility.yul\":6697:6719   */\n      add\n        /* \"#utility.yul\":6666:6729   */\n      tag_98\n      jump\t// in\n    tag_178:\n        /* \"#utility.yul\":6656:6729   */\n      swap5\n      pop\n        /* \"#utility.yul\":6611:6739   */\n      pop\n        /* \"#utility.yul\":6778:6780   */\n      0x40\n        /* \"#utility.yul\":6804:6868   */\n      tag_179\n        /* \"#utility.yul\":6860:6867   */\n      dup9\n        /* \"#utility.yul\":6851:6857   */\n      dup3\n        /* \"#utility.yul\":6840:6849   */\n      dup10\n        /* \"#utility.yul\":6836:6858   */\n      add\n        /* \"#utility.yul\":6804:6868   */\n      tag_99\n      jump\t// in\n    tag_179:\n        /* \"#utility.yul\":6794:6868   */\n      swap4\n      pop\n        /* \"#utility.yul\":6749:6878   */\n      pop\n        /* \"#utility.yul\":6917:6919   */\n      0x60\n        /* \"#utility.yul\":6943:7007   */\n      tag_180\n        /* \"#utility.yul\":6999:7006   */\n      dup9\n        /* \"#utility.yul\":6990:6996   */\n      dup3\n        /* \"#utility.yul\":6979:6988   */\n      dup10\n        /* \"#utility.yul\":6975:6997   */\n      add\n        /* \"#utility.yul\":6943:7007   */\n      tag_99\n      jump\t// in\n    tag_180:\n        /* \"#utility.yul\":6933:7007   */\n      swap3\n      pop\n        /* \"#utility.yul\":6888:7017   */\n      pop\n        /* \"#utility.yul\":7056:7059   */\n      0x80\n        /* \"#utility.yul\":7083:7146   */\n      tag_181\n        /* \"#utility.yul\":7138:7145   */\n      dup9\n        /* \"#utility.yul\":7129:7135   */\n      dup3\n        /* \"#utility.yul\":7118:7127   */\n      dup10\n        /* \"#utility.yul\":7114:7136   */\n      add\n        /* \"#utility.yul\":7083:7146   */\n      tag_95\n      jump\t// in\n    tag_181:\n        /* \"#utility.yul\":7073:7146   */\n      swap2\n      pop\n        /* \"#utility.yul\":7027:7156   */\n      pop\n        /* \"#utility.yul\":6192:7163   */\n      swap3\n      swap6\n      pop\n      swap3\n      swap6\n      swap1\n      swap4\n      pop\n      jump\t// out\n        /* \"#utility.yul\":7169:7725   */\n    tag_68:\n        /* \"#utility.yul\":7208:7215   */\n      0x00\n        /* \"#utility.yul\":7231:7250   */\n      tag_183\n        /* \"#utility.yul\":7248:7249   */\n      dup3\n        /* \"#utility.yul\":7231:7250   */\n      tag_96\n      jump\t// in\n    tag_183:\n        /* \"#utility.yul\":7226:7250   */\n      swap2\n      pop\n        /* \"#utility.yul\":7264:7283   */\n      tag_184\n        /* \"#utility.yul\":7281:7282   */\n      dup4\n        /* \"#utility.yul\":7264:7283   */\n      tag_96\n      jump\t// in\n    tag_184:\n        /* \"#utility.yul\":7259:7283   */\n      swap3\n      pop\n        /* \"#utility.yul\":7318:7319   */\n      dup3\n        /* \"#utility.yul\":7315:7316   */\n      dup3\n        /* \"#utility.yul\":7311:7320   */\n      mul\n        /* \"#utility.yul\":7340:7369   */\n      tag_185\n        /* \"#utility.yul\":7357:7368   */\n      dup2\n        /* \"#utility.yul\":7340:7369   */\n      tag_96\n      jump\t// in\n    tag_185:\n        /* \"#utility.yul\":7329:7369   */\n      swap2\n      pop\n        /* \"#utility.yul\":7427:7493   */\n      0x8000000000000000000000000000000000000000000000000000000000000000\n        /* \"#utility.yul\":7424:7425   */\n      dup5\n        /* \"#utility.yul\":7421:7494   */\n      eq\n        /* \"#utility.yul\":7417:7418   */\n      0x00\n        /* \"#utility.yul\":7414:7415   */\n      dup5\n        /* \"#utility.yul\":7410:7419   */\n      slt\n        /* \"#utility.yul\":7406:7495   */\n      and\n        /* \"#utility.yul\":7403:7518   */\n      iszero\n      tag_186\n      jumpi\n        /* \"#utility.yul\":7498:7516   */\n      tag_187\n      tag_88\n      jump\t// in\n    tag_187:\n        /* \"#utility.yul\":7403:7518   */\n    tag_186:\n        /* \"#utility.yul\":7668:7669   */\n      dup3\n        /* \"#utility.yul\":7659:7666   */\n      dup3\n        /* \"#utility.yul\":7654:7670   */\n      sdiv\n        /* \"#utility.yul\":7651:7652   */\n      dup5\n        /* \"#utility.yul\":7648:7671   */\n      eq\n        /* \"#utility.yul\":7628:7629   */\n      dup4\n        /* \"#utility.yul\":7621:7630   */\n      iszero\n        /* \"#utility.yul\":7601:7685   */\n      or\n        /* \"#utility.yul\":7578:7718   */\n      tag_188\n      jumpi\n        /* \"#utility.yul\":7698:7716   */\n      tag_189\n      tag_88\n      jump\t// in\n    tag_189:\n        /* \"#utility.yul\":7578:7718   */\n    tag_188:\n        /* \"#utility.yul\":7216:7725   */\n      pop\n        /* \"#utility.yul\":7169:7725   */\n      swap3\n      swap2\n      pop\n      pop\n      jump\t// out\n\n    auxdata: 0xa2646970667358221220040d918fb84875b9ca3c07ef2cf8adc9b40c7df00d31d8fd69c4894e3f753ae964736f6c63430008120033\n}\n",
				"bytecode": {
					"linkReferences": {},
					"object": "60806040526802b5e3af16b188000060005534801561001d57600080fd5b506109f28061002d6000396000f3fe60806040526004361061004a5760003560e01c80633430a88c1461004f5780633ccfd60b1461007a5780633e47d6f314610091578063b60d4288146100ce578063dc0d3dff146100d8575b600080fd5b34801561005b57600080fd5b50610064610115565b604051610071919061051a565b60405180910390f35b34801561008657600080fd5b5061008f61011b565b005b34801561009d57600080fd5b506100b860048036038101906100b39190610598565b61022a565b6040516100c5919061051a565b60405180910390f35b6100d6610242565b005b3480156100e457600080fd5b506100ff60048036038101906100fa91906105f1565b610338565b60405161010c919061062d565b60405180910390f35b60005481565b60005b6001805490508110156101c75760006001828154811061014157610140610648565b5b9060005260206000200160009054906101000a900473ffffffffffffffffffffffffffffffffffffffff1690506000600260008373ffffffffffffffffffffffffffffffffffffffff1673ffffffffffffffffffffffffffffffffffffffff168152602001908152602001600020819055505080806101bf906106a6565b91505061011e565b50600067ffffffffffffffff8111156101e3576101e26106ee565b5b6040519080825280602002602001820160405280156102115781602001602082028036833780820191505090505b506001908051906020019061022792919061045a565b50565b60026020528060005260406000206000915090505481565b60005461024e34610377565b101561028f576040517f08c379a00000000000000000000000000000000000000000000000000000000081526004016102869061077a565b60405180910390fd5b6001339080600181540180825580915050600190039060005260206000200160009091909190916101000a81548173ffffffffffffffffffffffffffffffffffffffff021916908373ffffffffffffffffffffffffffffffffffffffff16021790555034600260003373ffffffffffffffffffffffffffffffffffffffff1673ffffffffffffffffffffffffffffffffffffffff16815260200190815260200160002081905550565b6001818154811061034857600080fd5b906000526020600020016000915054906101000a900473ffffffffffffffffffffffffffffffffffffffff1681565b6000806103826103b1565b90506000670de0b6b3a7640000848361039b919061079a565b6103a5919061080b565b90508092505050919050565b60008073694aa1769357215de4fac081bf1f309adc325306905060008173ffffffffffffffffffffffffffffffffffffffff1663feaf968c6040518163ffffffff1660e01b815260040160a060405180830381865afa158015610418573d6000803e3d6000fd5b505050506040513d601f19601f8201168201806040525081019061043c91906108c9565b5050509150506402540be400816104539190610944565b9250505090565b8280548282559060005260206000209081019282156104d3579160200282015b828111156104d25782518260006101000a81548173ffffffffffffffffffffffffffffffffffffffff021916908373ffffffffffffffffffffffffffffffffffffffff1602179055509160200191906001019061047a565b5b5090506104e091906104e4565b5090565b5b808211156104fd5760008160009055506001016104e5565b5090565b6000819050919050565b61051481610501565b82525050565b600060208201905061052f600083018461050b565b92915050565b600080fd5b600073ffffffffffffffffffffffffffffffffffffffff82169050919050565b60006105658261053a565b9050919050565b6105758161055a565b811461058057600080fd5b50565b6000813590506105928161056c565b92915050565b6000602082840312156105ae576105ad610535565b5b60006105bc84828501610583565b91505092915050565b6105ce81610501565b81146105d957600080fd5b50565b6000813590506105eb816105c5565b92915050565b60006020828403121561060757610606610535565b5b6000610615848285016105dc565b91505092915050565b6106278161055a565b82525050565b6000602082019050610642600083018461061e565b92915050565b7f4e487b7100000000000000000000000000000000000000000000000000000000600052603260045260246000fd5b7f4e487b7100000000000000000000000000000000000000000000000000000000600052601160045260246000fd5b60006106b182610501565b91507fffffffffffffffffffffffffffffffffffffffffffffffffffffffffffffffff82036106e3576106e2610677565b5b600182019050919050565b7f4e487b7100000000000000000000000000000000000000000000000000000000600052604160045260246000fd5b600082825260208201905092915050565b7f4e6f7420656e6f7567682066756e640000000000000000000000000000000000600082015250565b6000610764600f8361071d565b915061076f8261072e565b602082019050919050565b6000602082019050818103600083015261079381610757565b9050919050565b60006107a582610501565b91506107b083610501565b92508282026107be81610501565b915082820484148315176107d5576107d4610677565b5b5092915050565b7f4e487b7100000000000000000000000000000000000000000000000000000000600052601260045260246000fd5b600061081682610501565b915061082183610501565b925082610831576108306107dc565b5b828204905092915050565b600069ffffffffffffffffffff82169050919050565b61085b8161083c565b811461086657600080fd5b50565b60008151905061087881610852565b92915050565b6000819050919050565b6108918161087e565b811461089c57600080fd5b50565b6000815190506108ae81610888565b92915050565b6000815190506108c3816105c5565b92915050565b600080600080600060a086880312156108e5576108e4610535565b5b60006108f388828901610869565b95505060206109048882890161089f565b9450506040610915888289016108b4565b9350506060610926888289016108b4565b925050608061093788828901610869565b9150509295509295909350565b600061094f8261087e565b915061095a8361087e565b92508282026109688161087e565b91507f800000000000000000000000000000000000000000000000000000000000000084146000841216156109a05761099f610677565b5b82820584148315176109b5576109b4610677565b5b509291505056fea2646970667358221220040d918fb84875b9ca3c07ef2cf8adc9b40c7df00d31d8fd69c4894e3f753ae964736f6c63430008120033",
					"opcodes": "PUSH1 0x80 PUSH1 0x40 MSTORE PUSH9 0x2B5E3AF16B1880000 PUSH1 0x0 SSTORE CALLVALUE DUP1 ISZERO PUSH2 0x1D JUMPI PUSH1 0x0 DUP1 REVERT JUMPDEST POP PUSH2 0x9F2 DUP1 PUSH2 0x2D PUSH1 0x0 CODECOPY PUSH1 0x0 RETURN INVALID PUSH1 0x80 PUSH1 0x40 MSTORE PUSH1 0x4 CALLDATASIZE LT PUSH2 0x4A JUMPI PUSH1 0x0 CALLDATALOAD PUSH1 0xE0 SHR DUP1 PUSH4 0x3430A88C EQ PUSH2 0x4F JUMPI DUP1 PUSH4 0x3CCFD60B EQ PUSH2 0x7A JUMPI DUP1 PUSH4 0x3E47D6F3 EQ PUSH2 0x91 JUMPI DUP1 PUSH4 0xB60D4288 EQ PUSH2 0xCE JUMPI DUP1 PUSH4 0xDC0D3DFF EQ PUSH2 0xD8 JUMPI JUMPDEST PUSH1 0x0 DUP1 REVERT JUMPDEST CALLVALUE DUP1 ISZERO PUSH2 0x5B JUMPI PUSH1 0x0 DUP1 REVERT JUMPDEST POP PUSH2 0x64 PUSH2 0x115 JUMP JUMPDEST PUSH1 0x40 MLOAD PUSH2 0x71 SWAP2 SWAP1 PUSH2 0x51A JUMP JUMPDEST PUSH1 0x40 MLOAD DUP1 SWAP2 SUB SWAP1 RETURN JUMPDEST CALLVALUE DUP1 ISZERO PUSH2 0x86 JUMPI PUSH1 0x0 DUP1 REVERT JUMPDEST POP PUSH2 0x8F PUSH2 0x11B JUMP JUMPDEST STOP JUMPDEST CALLVALUE DUP1 ISZERO PUSH2 0x9D JUMPI PUSH1 0x0 DUP1 REVERT JUMPDEST POP PUSH2 0xB8 PUSH1 0x4 DUP1 CALLDATASIZE SUB DUP2 ADD SWAP1 PUSH2 0xB3 SWAP2 SWAP1 PUSH2 0x598 JUMP JUMPDEST PUSH2 0x22A JUMP JUMPDEST PUSH1 0x40 MLOAD PUSH2 0xC5 SWAP2 SWAP1 PUSH2 0x51A JUMP JUMPDEST PUSH1 0x40 MLOAD DUP1 SWAP2 SUB SWAP1 RETURN JUMPDEST PUSH2 0xD6 PUSH2 0x242 JUMP JUMPDEST STOP JUMPDEST CALLVALUE DUP1 ISZERO PUSH2 0xE4 JUMPI PUSH1 0x0 DUP1 REVERT JUMPDEST POP PUSH2 0xFF PUSH1 0x4 DUP1 CALLDATASIZE SUB DUP2 ADD SWAP1 PUSH2 0xFA SWAP2 SWAP1 PUSH2 0x5F1 JUMP JUMPDEST PUSH2 0x338 JUMP JUMPDEST PUSH1 0x40 MLOAD PUSH2 0x10C SWAP2 SWAP1 PUSH2 0x62D JUMP JUMPDEST PUSH1 0x40 MLOAD DUP1 SWAP2 SUB SWAP1 RETURN JUMPDEST PUSH1 0x0 SLOAD DUP2 JUMP JUMPDEST PUSH1 0x0 JUMPDEST PUSH1 0x1 DUP1 SLOAD SWAP1 POP DUP2 LT ISZERO PUSH2 0x1C7 JUMPI PUSH1 0x0 PUSH1 0x1 DUP3 DUP2 SLOAD DUP2 LT PUSH2 0x141 JUMPI PUSH2 0x140 PUSH2 0x648 JUMP JUMPDEST JUMPDEST SWAP1 PUSH1 0x0 MSTORE PUSH1 0x20 PUSH1 0x0 KECCAK256 ADD PUSH1 0x0 SWAP1 SLOAD SWAP1 PUSH2 0x100 EXP SWAP1 DIV PUSH20 0xFFFFFFFFFFFFFFFFFFFFFFFFFFFFFFFFFFFFFFFF AND SWAP1 POP PUSH1 0x0 PUSH1 0x2 PUSH1 0x0 DUP4 PUSH20 0xFFFFFFFFFFFFFFFFFFFFFFFFFFFFFFFFFFFFFFFF AND PUSH20 0xFFFFFFFFFFFFFFFFFFFFFFFFFFFFFFFFFFFFFFFF AND DUP2 MSTORE PUSH1 0x20 ADD SWAP1 DUP2 MSTORE PUSH1 0x20 ADD PUSH1 0x0 KECCAK256 DUP2 SWAP1 SSTORE POP POP DUP1 DUP1 PUSH2 0x1BF SWAP1 PUSH2 0x6A6 JUMP JUMPDEST SWAP2 POP POP PUSH2 0x11E JUMP JUMPDEST POP PUSH1 0x0 PUSH8 0xFFFFFFFFFFFFFFFF DUP2 GT ISZERO PUSH2 0x1E3 JUMPI PUSH2 0x1E2 PUSH2 0x6EE JUMP JUMPDEST JUMPDEST PUSH1 0x40 MLOAD SWAP1 DUP1 DUP3 MSTORE DUP1 PUSH1 0x20 MUL PUSH1 0x20 ADD DUP3 ADD PUSH1 0x40 MSTORE DUP1 ISZERO PUSH2 0x211 JUMPI DUP2 PUSH1 0x20 ADD PUSH1 0x20 DUP3 MUL DUP1 CALLDATASIZE DUP4 CALLDATACOPY DUP1 DUP3 ADD SWAP2 POP POP SWAP1 POP JUMPDEST POP PUSH1 0x1 SWAP1 DUP1 MLOAD SWAP1 PUSH1 0x20 ADD SWAP1 PUSH2 0x227 SWAP3 SWAP2 SWAP1 PUSH2 0x45A JUMP JUMPDEST POP JUMP JUMPDEST PUSH1 0x2 PUSH1 0x20 MSTORE DUP1 PUSH1 0x0 MSTORE PUSH1 0x40 PUSH1 0x0 KECCAK256 PUSH1 0x0 SWAP2 POP SWAP1 POP SLOAD DUP2 JUMP JUMPDEST PUSH1 0x0 SLOAD PUSH2 0x24E CALLVALUE PUSH2 0x377 JUMP JUMPDEST LT ISZERO PUSH2 0x28F JUMPI PUSH1 0x40 MLOAD PUSH32 0x8C379A000000000000000000000000000000000000000000000000000000000 DUP2 MSTORE PUSH1 0x4 ADD PUSH2 0x286 SWAP1 PUSH2 0x77A JUMP JUMPDEST PUSH1 0x40 MLOAD DUP1 SWAP2 SUB SWAP1 REVERT JUMPDEST PUSH1 0x1 CALLER SWAP1 DUP1 PUSH1 0x1 DUP2 SLOAD ADD DUP1 DUP3 SSTORE DUP1 SWAP2 POP POP PUSH1 0x1 SWAP1 SUB SWAP1 PUSH1 0x0 MSTORE PUSH1 0x20 PUSH1 0x0 KECCAK256 ADD PUSH1 0x0 SWAP1 SWAP2 SWAP1 SWAP2 SWAP1 SWAP2 PUSH2 0x100 EXP DUP2 SLOAD DUP2 PUSH20 0xFFFFFFFFFFFFFFFFFFFFFFFFFFFFFFFFFFFFFFFF MUL NOT AND SWAP1 DUP4 PUSH20 0xFFFFFFFFFFFFFFFFFFFFFFFFFFFFFFFFFFFFFFFF AND MUL OR SWAP1 SSTORE POP CALLVALUE PUSH1 0x2 PUSH1 0x0 CALLER PUSH20 0xFFFFFFFFFFFFFFFFFFFFFFFFFFFFFFFFFFFFFFFF AND PUSH20 0xFFFFFFFFFFFFFFFFFFFFFFFFFFFFFFFFFFFFFFFF AND DUP2 MSTORE PUSH1 0x20 ADD SWAP1 DUP2 MSTORE PUSH1 0x20 ADD PUSH1 0x0 KECCAK256 DUP2 SWAP1 SSTORE POP JUMP JUMPDEST PUSH1 0x1 DUP2 DUP2 SLOAD DUP2 LT PUSH2 0x348 JUMPI PUSH1 0x0 DUP1 REVERT JUMPDEST SWAP1 PUSH1 0x0 MSTORE PUSH1 0x20 PUSH1 0x0 KECCAK256 ADD PUSH1 0x0 SWAP2 POP SLOAD SWAP1 PUSH2 0x100 EXP SWAP1 DIV PUSH20 0xFFFFFFFFFFFFFFFFFFFFFFFFFFFFFFFFFFFFFFFF AND DUP2 JUMP JUMPDEST PUSH1 0x0 DUP1 PUSH2 0x382 PUSH2 0x3B1 JUMP JUMPDEST SWAP1 POP PUSH1 0x0 PUSH8 0xDE0B6B3A7640000 DUP5 DUP4 PUSH2 0x39B SWAP2 SWAP1 PUSH2 0x79A JUMP JUMPDEST PUSH2 0x3A5 SWAP2 SWAP1 PUSH2 0x80B JUMP JUMPDEST SWAP1 POP DUP1 SWAP3 POP POP POP SWAP2 SWAP1 POP JUMP JUMPDEST PUSH1 0x0 DUP1 PUSH20 0x694AA1769357215DE4FAC081BF1F309ADC325306 SWAP1 POP PUSH1 0x0 DUP2 PUSH20 0xFFFFFFFFFFFFFFFFFFFFFFFFFFFFFFFFFFFFFFFF AND PUSH4 0xFEAF968C PUSH1 0x40 MLOAD DUP2 PUSH4 0xFFFFFFFF AND PUSH1 0xE0 SHL DUP2 MSTORE PUSH1 0x4 ADD PUSH1 0xA0 PUSH1 0x40 MLOAD DUP1 DUP4 SUB DUP2 DUP7 GAS STATICCALL ISZERO DUP1 ISZERO PUSH2 0x418 JUMPI RETURNDATASIZE PUSH1 0x0 DUP1 RETURNDATACOPY RETURNDATASIZE PUSH1 0x0 REVERT JUMPDEST POP POP POP POP PUSH1 0x40 MLOAD RETURNDATASIZE PUSH1 0x1F NOT PUSH1 0x1F DUP3 ADD AND DUP3 ADD DUP1 PUSH1 0x40 MSTORE POP DUP2 ADD SWAP1 PUSH2 0x43C SWAP2 SWAP1 PUSH2 0x8C9 JUMP JUMPDEST POP POP POP SWAP2 POP POP PUSH5 0x2540BE400 DUP2 PUSH2 0x453 SWAP2 SWAP1 PUSH2 0x944 JUMP JUMPDEST SWAP3 POP POP POP SWAP1 JUMP JUMPDEST DUP3 DUP1 SLOAD DUP3 DUP3 SSTORE SWAP1 PUSH1 0x0 MSTORE PUSH1 0x20 PUSH1 0x0 KECCAK256 SWAP1 DUP2 ADD SWAP3 DUP3 ISZERO PUSH2 0x4D3 JUMPI SWAP2 PUSH1 0x20 MUL DUP3 ADD JUMPDEST DUP3 DUP2 GT ISZERO PUSH2 0x4D2 JUMPI DUP3 MLOAD DUP3 PUSH1 0x0 PUSH2 0x100 EXP DUP2 SLOAD DUP2 PUSH20 0xFFFFFFFFFFFFFFFFFFFFFFFFFFFFFFFFFFFFFFFF MUL NOT AND SWAP1 DUP4 PUSH20 0xFFFFFFFFFFFFFFFFFFFFFFFFFFFFFFFFFFFFFFFF AND MUL OR SWAP1 SSTORE POP SWAP2 PUSH1 0x20 ADD SWAP2 SWAP1 PUSH1 0x1 ADD SWAP1 PUSH2 0x47A JUMP JUMPDEST JUMPDEST POP SWAP1 POP PUSH2 0x4E0 SWAP2 SWAP1 PUSH2 0x4E4 JUMP JUMPDEST POP SWAP1 JUMP JUMPDEST JUMPDEST DUP1 DUP3 GT ISZERO PUSH2 0x4FD JUMPI PUSH1 0x0 DUP2 PUSH1 0x0 SWAP1 SSTORE POP PUSH1 0x1 ADD PUSH2 0x4E5 JUMP JUMPDEST POP SWAP1 JUMP JUMPDEST PUSH1 0x0 DUP2 SWAP1 POP SWAP2 SWAP1 POP JUMP JUMPDEST PUSH2 0x514 DUP2 PUSH2 0x501 JUMP JUMPDEST DUP3 MSTORE POP POP JUMP JUMPDEST PUSH1 0x0 PUSH1 0x20 DUP3 ADD SWAP1 POP PUSH2 0x52F PUSH1 0x0 DUP4 ADD DUP5 PUSH2 0x50B JUMP JUMPDEST SWAP3 SWAP2 POP POP JUMP JUMPDEST PUSH1 0x0 DUP1 REVERT JUMPDEST PUSH1 0x0 PUSH20 0xFFFFFFFFFFFFFFFFFFFFFFFFFFFFFFFFFFFFFFFF DUP3 AND SWAP1 POP SWAP2 SWAP1 POP JUMP JUMPDEST PUSH1 0x0 PUSH2 0x565 DUP3 PUSH2 0x53A JUMP JUMPDEST SWAP1 POP SWAP2 SWAP1 POP JUMP JUMPDEST PUSH2 0x575 DUP2 PUSH2 0x55A JUMP JUMPDEST DUP2 EQ PUSH2 0x580 JUMPI PUSH1 0x0 DUP1 REVERT JUMPDEST POP JUMP JUMPDEST PUSH1 0x0 DUP2 CALLDATALOAD SWAP1 POP PUSH2 0x592 DUP2 PUSH2 0x56C JUMP JUMPDEST SWAP3 SWAP2 POP POP JUMP JUMPDEST PUSH1 0x0 PUSH1 0x20 DUP3 DUP5 SUB SLT ISZERO PUSH2 0x5AE JUMPI PUSH2 0x5AD PUSH2 0x535 JUMP JUMPDEST JUMPDEST PUSH1 0x0 PUSH2 0x5BC DUP5 DUP3 DUP6 ADD PUSH2 0x583 JUMP JUMPDEST SWAP2 POP POP SWAP3 SWAP2 POP POP JUMP JUMPDEST PUSH2 0x5CE DUP2 PUSH2 0x501 JUMP JUMPDEST DUP2 EQ PUSH2 0x5D9 JUMPI PUSH1 0x0 DUP1 REVERT JUMPDEST POP JUMP JUMPDEST PUSH1 0x0 DUP2 CALLDATALOAD SWAP1 POP PUSH2 0x5EB DUP2 PUSH2 0x5C5 JUMP JUMPDEST SWAP3 SWAP2 POP POP JUMP JUMPDEST PUSH1 0x0 PUSH1 0x20 DUP3 DUP5 SUB SLT ISZERO PUSH2 0x607 JUMPI PUSH2 0x606 PUSH2 0x535 JUMP JUMPDEST JUMPDEST PUSH1 0x0 PUSH2 0x615 DUP5 DUP3 DUP6 ADD PUSH2 0x5DC JUMP JUMPDEST SWAP2 POP POP SWAP3 SWAP2 POP POP JUMP JUMPDEST PUSH2 0x627 DUP2 PUSH2 0x55A JUMP JUMPDEST DUP3 MSTORE POP POP JUMP JUMPDEST PUSH1 0x0 PUSH1 0x20 DUP3 ADD SWAP1 POP PUSH2 0x642 PUSH1 0x0 DUP4 ADD DUP5 PUSH2 0x61E JUMP JUMPDEST SWAP3 SWAP2 POP POP JUMP JUMPDEST PUSH32 0x4E487B7100000000000000000000000000000000000000000000000000000000 PUSH1 0x0 MSTORE PUSH1 0x32 PUSH1 0x4 MSTORE PUSH1 0x24 PUSH1 0x0 REVERT JUMPDEST PUSH32 0x4E487B7100000000000000000000000000000000000000000000000000000000 PUSH1 0x0 MSTORE PUSH1 0x11 PUSH1 0x4 MSTORE PUSH1 0x24 PUSH1 0x0 REVERT JUMPDEST PUSH1 0x0 PUSH2 0x6B1 DUP3 PUSH2 0x501 JUMP JUMPDEST SWAP2 POP PUSH32 0xFFFFFFFFFFFFFFFFFFFFFFFFFFFFFFFFFFFFFFFFFFFFFFFFFFFFFFFFFFFFFFFF DUP3 SUB PUSH2 0x6E3 JUMPI PUSH2 0x6E2 PUSH2 0x677 JUMP JUMPDEST JUMPDEST PUSH1 0x1 DUP3 ADD SWAP1 POP SWAP2 SWAP1 POP JUMP JUMPDEST PUSH32 0x4E487B7100000000000000000000000000000000000000000000000000000000 PUSH1 0x0 MSTORE PUSH1 0x41 PUSH1 0x4 MSTORE PUSH1 0x24 PUSH1 0x0 REVERT JUMPDEST PUSH1 0x0 DUP3 DUP3 MSTORE PUSH1 0x20 DUP3 ADD SWAP1 POP SWAP3 SWAP2 POP POP JUMP JUMPDEST PUSH32 0x4E6F7420656E6F7567682066756E640000000000000000000000000000000000 PUSH1 0x0 DUP3 ADD MSTORE POP JUMP JUMPDEST PUSH1 0x0 PUSH2 0x764 PUSH1 0xF DUP4 PUSH2 0x71D JUMP JUMPDEST SWAP2 POP PUSH2 0x76F DUP3 PUSH2 0x72E JUMP JUMPDEST PUSH1 0x20 DUP3 ADD SWAP1 POP SWAP2 SWAP1 POP JUMP JUMPDEST PUSH1 0x0 PUSH1 0x20 DUP3 ADD SWAP1 POP DUP2 DUP2 SUB PUSH1 0x0 DUP4 ADD MSTORE PUSH2 0x793 DUP2 PUSH2 0x757 JUMP JUMPDEST SWAP1 POP SWAP2 SWAP1 POP JUMP JUMPDEST PUSH1 0x0 PUSH2 0x7A5 DUP3 PUSH2 0x501 JUMP JUMPDEST SWAP2 POP PUSH2 0x7B0 DUP4 PUSH2 0x501 JUMP JUMPDEST SWAP3 POP DUP3 DUP3 MUL PUSH2 0x7BE DUP2 PUSH2 0x501 JUMP JUMPDEST SWAP2 POP DUP3 DUP3 DIV DUP5 EQ DUP4 ISZERO OR PUSH2 0x7D5 JUMPI PUSH2 0x7D4 PUSH2 0x677 JUMP JUMPDEST JUMPDEST POP SWAP3 SWAP2 POP POP JUMP JUMPDEST PUSH32 0x4E487B7100000000000000000000000000000000000000000000000000000000 PUSH1 0x0 MSTORE PUSH1 0x12 PUSH1 0x4 MSTORE PUSH1 0x24 PUSH1 0x0 REVERT JUMPDEST PUSH1 0x0 PUSH2 0x816 DUP3 PUSH2 0x501 JUMP JUMPDEST SWAP2 POP PUSH2 0x821 DUP4 PUSH2 0x501 JUMP JUMPDEST SWAP3 POP DUP3 PUSH2 0x831 JUMPI PUSH2 0x830 PUSH2 0x7DC JUMP JUMPDEST JUMPDEST DUP3 DUP3 DIV SWAP1 POP SWAP3 SWAP2 POP POP JUMP JUMPDEST PUSH1 0x0 PUSH10 0xFFFFFFFFFFFFFFFFFFFF DUP3 AND SWAP1 POP SWAP2 SWAP1 POP JUMP JUMPDEST PUSH2 0x85B DUP2 PUSH2 0x83C JUMP JUMPDEST DUP2 EQ PUSH2 0x866 JUMPI PUSH1 0x0 DUP1 REVERT JUMPDEST POP JUMP JUMPDEST PUSH1 0x0 DUP2 MLOAD SWAP1 POP PUSH2 0x878 DUP2 PUSH2 0x852 JUMP JUMPDEST SWAP3 SWAP2 POP POP JUMP JUMPDEST PUSH1 0x0 DUP2 SWAP1 POP SWAP2 SWAP1 POP JUMP JUMPDEST PUSH2 0x891 DUP2 PUSH2 0x87E JUMP JUMPDEST DUP2 EQ PUSH2 0x89C JUMPI PUSH1 0x0 DUP1 REVERT JUMPDEST POP JUMP JUMPDEST PUSH1 0x0 DUP2 MLOAD SWAP1 POP PUSH2 0x8AE DUP2 PUSH2 0x888 JUMP JUMPDEST SWAP3 SWAP2 POP POP JUMP JUMPDEST PUSH1 0x0 DUP2 MLOAD SWAP1 POP PUSH2 0x8C3 DUP2 PUSH2 0x5C5 JUMP JUMPDEST SWAP3 SWAP2 POP POP JUMP JUMPDEST PUSH1 0x0 DUP1 PUSH1 0x0 DUP1 PUSH1 0x0 PUSH1 0xA0 DUP7 DUP9 SUB SLT ISZERO PUSH2 0x8E5 JUMPI PUSH2 0x8E4 PUSH2 0x535 JUMP JUMPDEST JUMPDEST PUSH1 0x0 PUSH2 0x8F3 DUP9 DUP3 DUP10 ADD PUSH2 0x869 JUMP JUMPDEST SWAP6 POP POP PUSH1 0x20 PUSH2 0x904 DUP9 DUP3 DUP10 ADD PUSH2 0x89F JUMP JUMPDEST SWAP5 POP POP PUSH1 0x40 PUSH2 0x915 DUP9 DUP3 DUP10 ADD PUSH2 0x8B4 JUMP JUMPDEST SWAP4 POP POP PUSH1 0x60 PUSH2 0x926 DUP9 DUP3 DUP10 ADD PUSH2 0x8B4 JUMP JUMPDEST SWAP3 POP POP PUSH1 0x80 PUSH2 0x937 DUP9 DUP3 DUP10 ADD PUSH2 0x869 JUMP JUMPDEST SWAP2 POP POP SWAP3 SWAP6 POP SWAP3 SWAP6 SWAP1 SWAP4 POP JUMP JUMPDEST PUSH1 0x0 PUSH2 0x94F DUP3 PUSH2 0x87E JUMP JUMPDEST SWAP2 POP PUSH2 0x95A DUP4 PUSH2 0x87E JUMP JUMPDEST SWAP3 POP DUP3 DUP3 MUL PUSH2 0x968 DUP2 PUSH2 0x87E JUMP JUMPDEST SWAP2 POP PUSH32 0x8000000000000000000000000000000000000000000000000000000000000000 DUP5 EQ PUSH1 0x0 DUP5 SLT AND ISZERO PUSH2 0x9A0 JUMPI PUSH2 0x99F PUSH2 0x677 JUMP JUMPDEST JUMPDEST DUP3 DUP3 SDIV DUP5 EQ DUP4 ISZERO OR PUSH2 0x9B5 JUMPI PUSH2 0x9B4 PUSH2 0x677 JUMP JUMPDEST JUMPDEST POP SWAP3 SWAP2 POP POP JUMP INVALID LOG2 PUSH5 0x6970667358 0x22 SLT KECCAK256 DIV 0xD SWAP2 DUP16 0xB8 BASEFEE PUSH22 0xB9CA3C07EF2CF8ADC9B40C7DF00D31D8FD69C4894E3F PUSH22 0x3AE964736F6C63430008120033000000000000000000 "
				},
				"gasEstimates": {
					"creation": {
						"codeDepositCost": "509200",
						"executionCost": "22649",
						"totalCost": "531849"
					},
					"external": {
						"addressToAmountFunded(address)": "2836",
						"fund()": "infinite",
						"funders(uint256)": "5022",
						"minimumUSD()": "2407",
						"withdraw()": "infinite"
					}
				},
				"methodIdentifiers": {
					"addressToAmountFunded(address)": "3e47d6f3",
					"fund()": "b60d4288",
					"funders(uint256)": "dc0d3dff",
					"minimumUSD()": "3430a88c",
					"withdraw()": "3ccfd60b"
				}
			},
			"storageLayout": {
				"storage": [
					{
						"astId": 56,
						"contract": "contracts/FundMe.sol:FundMe",
						"label": "minimumUSD",
						"offset": 0,
						"slot": "0",
						"type": "t_uint256"
					},
					{
						"astId": 59,
						"contract": "contracts/FundMe.sol:FundMe",
						"label": "funders",
						"offset": 0,
						"slot": "1",
						"type": "t_array(t_address)dyn_storage"
					},
					{
						"astId": 63,
						"contract": "contracts/FundMe.sol:FundMe",
						"label": "addressToAmountFunded",
						"offset": 0,
						"slot": "2",
						"type": "t_mapping(t_address,t_uint256)"
					}
				],
				"types": {
					"t_address": {
						"encoding": "inplace",
						"label": "address",
						"numberOfBytes": "20"
					},
					"t_array(t_address)dyn_storage": {
						"base": "t_address",
						"encoding": "dynamic_array",
						"label": "address[]",
						"numberOfBytes": "32"
					},
					"t_mapping(t_address,t_uint256)": {
						"encoding": "mapping",
						"key": "t_address",
						"label": "mapping(address => uint256)",
						"numberOfBytes": "32",
						"value": "t_uint256"
					},
					"t_uint256": {
						"encoding": "inplace",
						"label": "uint256",
						"numberOfBytes": "32"
					}
				}
			},
			"userdoc": {
				"kind": "user",
				"methods": {},
				"version": 1
			}
		}
	}
}