{
	"data": {
		"bytecode": {
			"linkReferences": {},
			"object": "6080604052603260005534801561001557600080fd5b506101bb806100256000396000f3fe6080604052600436106100345760003560e01c80633430a88c1461003957806398d5fdca14610064578063b60d42881461007b575b600080fd5b34801561004557600080fd5b5061004e610085565b60405161005b91906100ed565b60405180910390f35b34801561007057600080fd5b5061007961008b565b005b61008361008d565b005b60005481565b565b6000543410156100d2576040517f08c379a00000000000000000000000000000000000000000000000000000000081526004016100c990610165565b60405180910390fd5b565b6000819050919050565b6100e7816100d4565b82525050565b600060208201905061010260008301846100de565b92915050565b600082825260208201905092915050565b7f4e6f7420656e6f7567682066756e640000000000000000000000000000000000600082015250565b600061014f600f83610108565b915061015a82610119565b602082019050919050565b6000602082019050818103600083015261017e81610142565b905091905056fea2646970667358221220047b07e7309844bad577881d85a204110a0f0043982dcb46a970a610e363db2764736f6c63430008120033",
			"opcodes": "PUSH1 0x80 PUSH1 0x40 MSTORE PUSH1 0x32 PUSH1 0x0 SSTORE CALLVALUE DUP1 ISZERO PUSH2 0x15 JUMPI PUSH1 0x0 DUP1 REVERT JUMPDEST POP PUSH2 0x1BB DUP1 PUSH2 0x25 PUSH1 0x0 CODECOPY PUSH1 0x0 RETURN INVALID PUSH1 0x80 PUSH1 0x40 MSTORE PUSH1 0x4 CALLDATASIZE LT PUSH2 0x34 JUMPI PUSH1 0x0 CALLDATALOAD PUSH1 0xE0 SHR DUP1 PUSH4 0x3430A88C EQ PUSH2 0x39 JUMPI DUP1 PUSH4 0x98D5FDCA EQ PUSH2 0x64 JUMPI DUP1 PUSH4 0xB60D4288 EQ PUSH2 0x7B JUMPI JUMPDEST PUSH1 0x0 DUP1 REVERT JUMPDEST CALLVALUE DUP1 ISZERO PUSH2 0x45 JUMPI PUSH1 0x0 DUP1 REVERT JUMPDEST POP PUSH2 0x4E PUSH2 0x85 JUMP JUMPDEST PUSH1 0x40 MLOAD PUSH2 0x5B SWAP2 SWAP1 PUSH2 0xED JUMP JUMPDEST PUSH1 0x40 MLOAD DUP1 SWAP2 SUB SWAP1 RETURN JUMPDEST CALLVALUE DUP1 ISZERO PUSH2 0x70 JUMPI PUSH1 0x0 DUP1 REVERT JUMPDEST POP PUSH2 0x79 PUSH2 0x8B JUMP JUMPDEST STOP JUMPDEST PUSH2 0x83 PUSH2 0x8D JUMP JUMPDEST STOP JUMPDEST PUSH1 0x0 SLOAD DUP2 JUMP JUMPDEST JUMP JUMPDEST PUSH1 0x0 SLOAD CALLVALUE LT ISZERO PUSH2 0xD2 JUMPI PUSH1 0x40 MLOAD PUSH32 0x8C379A000000000000000000000000000000000000000000000000000000000 DUP2 MSTORE PUSH1 0x4 ADD PUSH2 0xC9 SWAP1 PUSH2 0x165 JUMP JUMPDEST PUSH1 0x40 MLOAD DUP1 SWAP2 SUB SWAP1 REVERT JUMPDEST JUMP JUMPDEST PUSH1 0x0 DUP2 SWAP1 POP SWAP2 SWAP1 POP JUMP JUMPDEST PUSH2 0xE7 DUP2 PUSH2 0xD4 JUMP JUMPDEST DUP3 MSTORE POP POP JUMP JUMPDEST PUSH1 0x0 PUSH1 0x20 DUP3 ADD SWAP1 POP PUSH2 0x102 PUSH1 0x0 DUP4 ADD DUP5 PUSH2 0xDE JUMP JUMPDEST SWAP3 SWAP2 POP POP JUMP JUMPDEST PUSH1 0x0 DUP3 DUP3 MSTORE PUSH1 0x20 DUP3 ADD SWAP1 POP SWAP3 SWAP2 POP POP JUMP JUMPDEST PUSH32 0x4E6F7420656E6F7567682066756E640000000000000000000000000000000000 PUSH1 0x0 DUP3 ADD MSTORE POP JUMP JUMPDEST PUSH1 0x0 PUSH2 0x14F PUSH1 0xF DUP4 PUSH2 0x108 JUMP JUMPDEST SWAP2 POP PUSH2 0x15A DUP3 PUSH2 0x119 JUMP JUMPDEST PUSH1 0x20 DUP3 ADD SWAP1 POP SWAP2 SWAP1 POP JUMP JUMPDEST PUSH1 0x0 PUSH1 0x20 DUP3 ADD SWAP1 POP DUP2 DUP2 SUB PUSH1 0x0 DUP4 ADD MSTORE PUSH2 0x17E DUP2 PUSH2 0x142 JUMP JUMPDEST SWAP1 POP SWAP2 SWAP1 POP JUMP INVALID LOG2 PUSH5 0x6970667358 0x22 SLT KECCAK256 DIV PUSH28 0x7E7309844BAD577881D85A204110A0F0043982DCB46A970A610E363 0xDB 0x27 PUSH5 0x736F6C6343 STOP ADDMOD SLT STOP CALLER "
		},
		"gasEstimates": {
			"creation": {
				"codeDepositCost": "88600",
				"executionCost": "22241",
				"totalCost": "110841"
			},
			"external": {
				"fund()": "2556",
				"getPrice()": "144",
				"minimumUSD()": "2407"
			}
		},
		"methodIdentifiers": {
			"fund()": "b60d4288",
			"getPrice()": "98d5fdca",
			"minimumUSD()": "3430a88c"
		}
	},
	"abi": [
		{
			"inputs": [],
			"name": "fund",
			"outputs": [],
			"stateMutability": "payable",
			"type": "function"
		},
		{
			"inputs": [],
			"name": "getPrice",
			"outputs": [],
			"stateMutability": "nonpayable",
			"type": "function"
		},
		{
			"inputs": [],
			"name": "minimumUSD",
			"outputs": [
				{
					"internalType": "uint256",
					"name": "",
					"type": "uint256"
				}
			],
			"stateMutability": "view",
			"type": "function"
		}
	]
}